:0400000080313D28E6
:100008007E1480314101161E0A280B2812280C1E66
:100018000E280F2812288431402480310B1F152800
:1000280016283B284101981D1A281B2823288E1DB5
:100038001E281F2823288331012380313B28961E40
:10004800262827282F288C1E2A282B282F2883315A
:100058002D2380313B289C1C322833283B28921CB6
:10006800362837283B288331102380313B287E10DF
:10007800090080313F2884313C248031FC00F001A4
:10008800F101F201F301F401F501F601A001A1016A
:10009800A201A301A401A501A601A701A801A90124
:1000A800AA01AB017E10400183311F2B04340834B0
:1000B8000C341034143418341C34203424342834C8
:1000C8002C343034343438343C34403444344834B8
:1000D8004C345034543458345C34603464346834A8
:1000E8006C347034743478347C348034833487349A
:1000F8008B348F34933497349B349F34A334A73490
:10010800AB34AF34B334B734BB34BF34C334C7347F
:10011800CB34CF34D334D734DB34DF34E334E7346F
:10012800EB34EF34F334F734FB34FF34FB34F73477
:10013800F334EF34EB34E734E334DF34DB34D734EF
:10014800D334CF34CB34C734C334BF34BB34B734DF
:10015800B334AF34AB34A734A3349F349B349734CF
:1001680093348F348B348734833480347C347834BC
:10017800743470346C346834643460345C345834A7
:10018800543450344C344834443440343C34383497
:10019800343430342C342834243420341C34183487
:1001A800143410340C34083404340434FF3084001C
:1001B80081308500013F8A00003F0A008031003A03
:1001C8000319E728E828DA285F30FB007B08FA00E3
:1001D800FB30840081308500013F8A00003F0A001F
:1001E8008031FF30840081308500013F8A00003F64
:1001F8000A008031003A031902290329F5288331BE
:10020800FD2380317808FB007B08FA00FB3084006E
:1002180081308500013F8A00003F0A008131FF30AC
:10022800840081308500013F8A00003F0A00813147
:10023800003A03192029212913298331FD2380310C
:100248007908FB007B08FA00FB30840081308500C8
:10025800013F8A00003F0A008131FF30840081306D
:100268008500013F8A00003F0A008131003A0319E6
:100278003E293F293129A030FB007B08FA00FB30DA
:10028800840081308500013F8A00003F0A008131E7
:1002980008002130F8000430F9005C308400833015
:1002A8008500013F8A00003F0A0081311C30F800B8
:1002B8000430F9006830840083308500013F8A00EB
:1002C800003F0A0081312630F8000430F9008331FC
:1002D800F7238131393084310D2481313D30843127
:1002E800122481318331BA2381314A30840083302A
:1002F8008500013F8A00003F0A0081316230840096
:1003080083308500013F8A00003F0A0081310800E0
:100318004001980199019A0133309200703093009E
:10032800F930940037307D018C0050309600FC3055
:10033800A0008D0197010130A1008E019801A20152
:1003480037308F00F0309900FF30A3003F30900025
:10035800F0309A00FF30A40004307C01BD000D305D
:10036800C20010309A0013307B019B007D0191017F
:10037800920193019B019C019D01A501A601A70182
:1003880008007A018C018D018E018F019201930181
:10039800980110309A009F01A0010C30A100A20121
:1003A800A301A401A501AE01AF01B001A70143302B
:1003B800A8000730A900AA010330AB000430AC0044
:1003C8000130AD008630A600410112109210413074
:1003D800F8000430F9008331F723813141019C147E
:1003E80008004B34023400340034003400342F3415
:1003F800043400340034F23402340034003400345D
:100408000034003400340034003400340034003444
:100418000034003400340034003400340034003434
:1004280000340034003400340034003400348434A0
:100438000334783403340034003400340034833116
:100448009B23823181318C2182318131C5218231D6
:100458008231D12282318331E52382318331DF2316
:10046800823182314B22823184312B248231833193
:100478006C2382318231AC228231823197228231DF
:1004880082318022823183319023823108004830C2
:100498004E0192009030900026309100CF308E00AF
:1004A8008F010030F8000030F90083318423823155
:1004B8000030F8000030F9008331782382314001A0
:1004C800A601A70108004001200884002108850032
:1004D800000884311724823101304001A007003020
:1004E800A13D0130FC027C08031D7B2A7C2A7F2A5F
:1004F8008331BA2382310800063047019600113053
:1005080095009701CC30930092013F30F8000430F9
:10051800F9008331F123823141018E119815C030E1
:100528004701940008000630470190008F019101AF
:1005380004308D008C013D30F8000430F90083311F
:10054800EB23823141010E11413047018E00080032
:10055800F23043019D009C0147309F003E30F80077
:100568000430F90084310824823141018C12961636
:1005780043019E0108008331CE238231013A031DD5
:10058800C62AC72ACC2A00308331D7238231D02A01
:1005980001308331D723823108004D0196018D0146
:1005A8000E308E000C308F00900191019201930162
:1005B80094019501970180308C00080003104001D8
:1005C8009A1C03140318E92AEC2A40019A14EE2A0B
:1005D80040019A108231BF2282310800F80141019E
:1005E800101FF72AF82AFF2A4E01911EFC2AFD2A1D
:1005F800FF2AF801F80A7808080041018E11400125
:100608002A082B040319092B0A2B0F2B2B088A0005
:100618002A080A00833108004101921040012C0881
:100628002D040319182B192B1E2B2D088A002C08B2
:100638000A00833108008231232283318B170B177C
:1006480081314D2183318331A6238331272B80319A
:100658003D2841018C12700871040319342B352B85
:100668003A2B71088A0070080A0083310800740860
:1006780003193F2B402B472BF4018231E2228331AF
:100688008331BA2383310800973402343334043475
:100698000034003400340034EB34033400340034C4
:1006A80080340234393404340034003400340034E3
:1006B800F134033400340034AC34023436340434B6
:1006C8000034003400340034083404340034003476
:1006D8003F3052018D0014308E0080308F00900121
:1006E800920180308C0008007808790403197D2B6A
:1006F8007E2B832B79084001A3007808A20008000C
:10070800780879040319892B8A2B8F2B79084001E3
:10071800A5007808A400080041010C100B14003053
:10072800F8000030F9008431032483310800603078
:1007380045018D0040308F009101043093009201F3
:10074800940108008331B023833183313B23833103
:100758008331C4238331080076080319B42BB52BE1
:10076800B92BF60182316722833108008030F80006
:100778007808FC005A304001A0008030A100080031
:1007880075080319C82BC92BCD2BF5018031DA2048
:10079800833108007A01A61CD22BD32BD52B01302C
:1007A800D62B00300800F800780C7A01031CA6103C
:1007B8000318A61408008030510190004F309100B2
:1007C8000800A83051018C00FA308D000800790823
:1007D8004001A9007808A800080079084001AB008A
:1007E8007808AA00080079084001AD007808AC0034
:1007F80008007A011508F9001408F80008007908BB
:10080800F3007808F20008007908F1007808F00091
:100818000800F80078087A019F000800F8007808B6
:100828007A01A0000800F800780851018D0008003E
:100838000130F7007708F60008000130F700770864
:10084800F40008000130F7007708F5000800C6300A
:1008580044018C0008007A084E018D000800470109
:100868008E17080043019E170800470194170800D7
:0C08780080340800080008000800080098
:020000040001F9
:08000000FF3FFF3FFF3FFF3F00
:0A000E00EC3FFF3F9F3FFF3FFF3F25
:00000001FF
