:020000040000FA
:10000000803102288731EA2FFF3FFF3FFF3FFF3F4C
:10001000FF3FFF3FFF3FFF3FFF3FFF3FFF3FFF3FF0
:10002000FF3FFF3FFF3FFF3FFF3FFF3FFF3FFF3FE0
:10003000FF3FFF3FFF3FFF3FFF3FFF3FFF3FFF3FD0
:10004000FF3FFF3FFF3FFF3FFF3FFF3FFF3FFF3FC0
:10005000FF3FFF3FFF3FFF3FFF3FFF3FFF3FFF3FB0
:10006000FF3FFF3FFF3FFF3FFF3FFF3FFF3FFF3FA0
:10007000FF3FFF3FFF3FFF3FFF3FFF3FFF3FFF3F90
:10008000FF3FFF3FFF3FFF3FFF3FFF3FFF3FFF3F80
:10009000FF3FFF3FFF3FFF3FFF3FFF3FFF3FFF3F70
:1000A000FF3FFF3FFF3FFF3FFF3FFF3FFF3FFF3F60
:1000B000FF3FFF3FFF3FFF3FFF3FFF3FFF3FFF3F50
:1000C000FF3FFF3FFF3FFF3FFF3FFF3FFF3FFF3F40
:1000D000FF3FFF3FFF3FFF3FFF3FFF3FFF3FFF3F30
:1000E000FF3FFF3FFF3FFF3FFF3FFF3FFF3FFF3F20
:1000F000FF3FFF3FFF3FFF3FFF3FFF3FFF3FFF3F10
:10010000FF3FFF3F4E010F0D0F0D01390800710831
:100110004001EC007008EB00080064008001013130
:10012000890B8E280034FE0012001E00FE0B94285E
:1001300000344E010F1F9928700854019A000800DE
:100140004F0196019701980199019A019B010800BE
:10015000623051018D008F019101023093009001B6
:10016000920108004E018F1FB22854019D1CBA282D
:100170001D121D1619080800083054019F00903008
:100180009D0024309E0019309B009C0108008031A6
:10019000A02080318131672180318031A8208031D9
:1001A0008031BC2008008031C72080319930F000B8
:1001B0000030F10080318720803185313C2580314D
:1001C000DD28F300F201731CE9287008F1007108C2
:1001D000F2070310F00D0310F30C7308031DE3285E
:1001E00072080800F100803182208031003A031D3E
:1001F000FB28013008008031B220F0007108860031
:1002000001308700700881000030080000308B1B2F
:100210000130F2008B13700850019A0071089B00A6
:100220001E171E1400000000720C031C8B13031811
:100230008B1750011D08F1001C08F0000800E23483
:100240008834B7348834C7348834CE348834A734FB
:100250008834D534883486348834BF3488347D3447
:1002600088349F34883451348834AF348834ED3442
:100270008834F3004A29730886000130870001089A
:10028000031958290130F2007208F3070130F00712
:100290000030F13D70088400710885000008F2000C
:1002A00073088600013087000108720603193B2994
:1002B000730886000130870070088400710885008B
:1002C00000080102F000F101031CF10308004001E5
:1002D0009C0102309B00980199019A010A30960016
:1002E000FF309200FF309300FF309400FE30950005
:1002F000FD307E01D900FF30CE00FF30C300073053
:10030000E400FF30B800DA010430E500C401B901AF
:10031000CF01E601BA01C501D001DB01FF30BB000E
:10032000FF30C600FF30D100FF30DC000730E700AF
:100330001130A80019307D01CD000800F400F5014E
:10034000F3017308031D0800740875078031F2205B
:100350008131003A031DA42975087407F200720860
:100360008600013087000D3001060319C229750887
:100370007407F20072088600013087000A30010617
:10038000031DCC2975087407F2007208860001303D
:1003900087008101F301F30A73080319D529750851
:1003A000031DD529F301F501A1290130F2007208DE
:1003B000F507A129F9000030FD000030FC000030F5
:1003C000FB000030FA007A35513E86008701403F3D
:1003D000F000413FF1007908813139218131700805
:1003E0007104031DFC297D08F7007C08F6007B08DA
:1003F000F5007A08F40008000130FA070030FB3DF0
:100400000030FC3D0030FD3D7D08031D112A7C08B5
:10041000031D112A7B08031D112A0D307A02031CCB
:10042000E329FF30F700FF30F600FF30F500FF3022
:10043000F4000800F601F11F242AF009F109F00A7E
:100440000319F10AF601F60AF31F2F2AF209F3093C
:10045000F20A0319F30A0130F4007408F606F701F2
:10046000F8017008710403195E2AF501F50AF11B01
:10047000432A0130F035F10D890B3A2A0130F4009E
:100480007408F507372A0130F735F80D890B442A2F
:1004900071087302031D4E2A70087202031C552A4C
:1004A0007008F2027108F33B77140130F136F00C5A
:1004B000890B562A0130F502031D432A76080319D9
:1004C000662AF709F809F70A0319F80A7808F1000B
:1004D0007708F00008000030FC000030FB0000301E
:1004E000FA000030F90073087204710470040319F3
:1004F000B42AFD01FD0AF31B892A0130F035F10D04
:10050000F20DF30D890B7E2A0130F8007808FD0703
:100510007B2A0130F935FA0DFB0DFC0D890B8A2A77
:1005200073087702031D9E2A72087602031D9E2A15
:1005300071087502031D9E2A70087402031CA92A03
:100540007008F4027108F53B7208F63B7308F73B3C
:1005500079140130F336F20CF10CF00C890BAA2A55
:100560000130FD02031D892A7C08F3007B08F2009C
:100570007A08F1007908F00008004001A701A70AF5
:100580008030A3000030A2000030A1000030A000A5
:100590002030F7007708A50070082005F7007108E3
:1005A0002105F80072082205F90073082305FA00F6
:1005B0007A087904780477040319E32A2508F700F8
:1005C0007708A700EF2A0130A336A20CA10CA00CDB
:1005D000890BE42A0130A5022508031DCC2A7608E0
:1005E00027020318F72A7608F7007708A7002130BA
:1005F0002702031CFF2A2030F7007708A7002708EE
:10060000F7007708A600260803193A2B700801396D
:10061000F7007708A4000130F336F20CF10CF00C6F
:10062000890B0C2B24080319262B2608F700F80148
:1006300077087407F9007808753DFA007908FF3EDD
:100640008600FF307A3D87003130362B2608F700D0
:10065000F80177087407F9007808753DFA00790801
:10066000FF3E8600FF307A3D870030308100013048
:10067000A602032B2708F700F80177087407860005
:100680007808753D87000030810008004001A7010F
:10069000A70AF030A3000030A2000030A100003013
:1006A000A0000830F7007708A40070082005F700C4
:1006B00071082105F80072082205F9007308230566
:1006C000FA007A0879047804770403196C2B24085B
:1006D000F7007708A700782B0430A336A20CA10CF2
:1006E000A00C890B6D2B0130A4022408031D552B8F
:1006F000760827020318802B7608F7007708A700F2
:1007000009302702031C882B0830F7007708A70060
:100710002708F7007708A60026080319C62B7008DB
:100720000F39F7007708A5000430F336F20CF10C0E
:10073000F00C890B952B0A3025020318B12B2608E3
:10074000F700F80177087407F9007808753DFA009A
:100750007908FF3E8600FF307A3D87002508303E4D
:10076000C22B2608F700F80177087407F90078080B
:10077000753DFA007908FF3E8600FF307A3D87001C
:100780002508373E81000130A6028C2B2708F70090
:10079000F8017708740786007808753D87000030F7
:1007A0008100080040012308B9002208B800210890
:1007B000B7002008B6003B30BD009A30BC00CA30FC
:1007C000BB000030BA00BE01C101C10A0A303E02BE
:1007D0000318342C3030A7003E082B3E86008701DA
:1007E000270881003D083902031D002C3C0838020F
:1007F000031D002C3B083702031D002C3A0836026B
:10080000031C132C0130A7003E082B3E86008701F5
:10081000270881073A08B6023B08B73B3C08B83BBB
:100820003D08B93BF22B0130A7002708BE07003076
:10083000F3000030F2000030F1000A30F0003D0813
:10084000F7003C08F6003B08F5003A08F400823156
:100850006B22833173084001BD007208BC0071082F
:10086000BB007008BA00E62BC00140082B3E860092
:100870008701303001060319432C40080A3CA700C9
:100880002708C1004B2C0130A7002708C0070A30F9
:100890004002031C352C260841020318532C26085D
:1008A000A7002708C100BF0141083F020318732CAD
:1008B0003F08A700A8012708240786002808253D2F
:1008C00087002B30A9004108A9023F082907AA0088
:1008D0002A080A3E84008501000881000130A70033
:1008E0002708BF07542C4108A700A80127082407A0
:1008F00086002808253D8700003081000800F901A6
:1009000001304001A0007908003E840088300318BF
:10091000013E850000080739890A8F2CA035890B14
:100920008E2C2008FF3AA1000830F0000030F100C2
:100930007908003E840088300318013E85000008D5
:10094000A200A3012208F2002308F30082311A2238
:10095000843118304001A4000030A500700824073D
:1009600086007108253D8700210881050130A0001F
:100970007908003E840088300318013E8500000895
:100980000739890AC42CA035890BC32C2008FF3AEB
:10099000A1000830F0000030F1007908003E84002A
:1009A00088300318013E85000008A200A301220838
:1009B000F2002308F30082311A2284311230400100
:1009C000A4000030A5007008240786007108253DAA
:1009D00087002108810541304001A000EE30890BDD
:1009E000EF2CA00BEF2C000001304001A000790893
:1009F000003E840088300318013E85000008073956
:100A0000890A032DA035890B022D2008A10008308A
:100A1000F0000030F1007908003E840088300318AF
:100A2000013E85000008A200A3012208F20023086D
:100A3000F30082311A22843112304001A4000030C8
:100A4000A5007008240786007108253D870021084D
:100A5000810441304001A000EE30890B2D2DA00B08
:100A60002D2D000001304001A0002008F9071E30A4
:100A7000790203180800802C203081319E218531B5
:100A8000402E68304001C2008830C30086318F2676
:100A9000080040011C10E830C2008830C3008631D5
:100AA0008F26080040011C14E830C2008830C300C3
:100AB00086318F26080097304001C2008830C3007D
:100AC0000630F0000030F1008131062185317008D8
:100AD0004001CB007108CC00CD01CE014E08C7000B
:100AE0004D08C6004C08C5004B08C40086318F264F
:100AF000080097304001C2008830C3000530F00084
:100B00000030F10081310621853170084001CB00B1
:100B10007108CC00CD01CE014E08C7004D08C600BB
:100B20004C08C5004B08C40086318F260800F630FB
:100B30004001C2008830C30086318F2685314001D4
:100B4000CF01F230C2008830C3004F08003EF000F1
:100B5000013003180230F10081310621853170081F
:100B60004001CB007108CC00CD01CE014E08C7007A
:100B70004D08C6004C08C5004B08C40086318F26BE
:100B8000853101304001CB004B08CF0709304F02BF
:100B9000031CA12D3130C2008830C30086318F265E
:100BA000080040011C111611E830C2008830C30053
:100BB00086318F26080040011C11E830C2008830C1
:100BC000C30086318F26080040011C15E830C200A2
:100BD0008830C30086318F2608004001101DF72D94
:100BE0005D30C2008830C30086318F260800733024
:100BF000C2008830C30086318F26080084317F24EC
:100C00008531E8304001C2008830C30086318F262C
:100C1000080034304001C2008830C3004530C400B1
:100C20008830C50086318F2608001E304001C20082
:100C30008830C30086318F2685314001D0018F3046
:100C4000C2008830C3005035513E86008701403FC6
:100C5000C400413FC50086318F26853101304001F7
:100C6000CB004B08D0070D305002031808001F2E90
:100C7000DC304001C2008830C30086318F26080076
:100C800020308131DA2185317708003A0319842E2A
:100C9000FF3A0319892E382E7508003A0319512E90
:100CA000382E7408003A0319412D013A0319792DA1
:100CB000033A03195B2D013A0319972D073A0319DB
:100CC000522D013A0319492D033A0319D12D013A46
:100CD0000319DB2D0F3A0319E42D013A0319ED2D09
:100CE000033A0319FE2D013A0319092E073A031995
:100CF000152E382E7508FF3A03197F2E382E7408EA
:100D0000FF3A0319382E382E7608003A03194C2E74
:100D1000382E7608FF3A03197A2E382E0800400143
:100D20006B086C04031908004430C80048084101EE
:100D3000C900A030CA000030CB0040014208840046
:100D40004308850012000319080042088400430884
:100D500085001200253A031DD72F0130C20700304D
:100D6000C33D4101C801D92E4208840043088500D3
:100D70000008C8003A3048020318E42E42088400F4
:100D8000430885000008C8000A30C9004908F0007F
:100D9000410148088031E120863140014807D03EBA
:100DA000CA004A084101C80001304001C2070030B2
:100DB000C33D400142088400430885000008C80084
:100DC000303048020318B42E4208840043088500DE
:100DD0000008C8005F304805583A031D0D2F410137
:100DE000490886008701403FF000413FF100423F43
:100DF000F200433FF3004B08F5004A08F4004808AE
:100E00004001C8004808F60083314623863104308B
:100E10004001C80048084101C90740014208840058
:100E2000430885000008C8005F304805443A031DA8
:100E30003D2F4101490886008701403F4001A00045
:100E4000413FA100423FA200433FA30041014B08A4
:100E50004001A50041014A084001A40041014808A1
:100E60004001C8004808A6008331D22386310430EF
:100E70004001C80048084101C907400142088400F8
:100E8000430885000008C8005F304805423A031D4A
:100E9000672F4101490886008701403FF000413F2C
:100EA000F100423FF200433FF3004B08F5004A08CF
:100EB000F40048084001C8004808F6008231BD220D
:100EC000863104304001C80048084101C90740018B
:100ED00042088400430885000008C8005F304805C8
:100EE000533A031D812F4101490886008701403F85
:100EF000CA00413FCB0002304001C8004808410110
:100F0000C907400142088400430885000008C80062
:100F10005F304805433A031DA42F41014A0886006B
:100F20004B088700490884008501000881000230D1
:100F30004001C80048084101C9074A0886004B081B
:100F4000870041310030810040014208840043089D
:100F500085001200253A031DBB2F41014A08860077
:100F60004B088700253081004A0886004B0887001F
:100F700041310030810041014A0884004B0885005E
:100F800012000319E42F4A0884004B08850000086A
:100F90004001C8004808F0006C088A006B080A008D
:100FA000873101304101CA070030CB3DBB2F4208D9
:100FB0008400430885000008C8004808F0006C0859
:100FC0008A006B080A00873101304001C2070030F7
:100FD000C33D9D2E1F308400813085005130860036
:100FE000003087001A308031932087312030840010
:100FF00001308500503080318D2040018031D32870
:10100000123413340A3409341434153416341C34AD
:1010100008340B340C3417341A341B342034213484
:10102000103411340D341D341E341F340034013497
:10103000023403340434053406340734413476343E
:10104000613469346C34613462346C346534203416
:1010500063346F346D346D3461346E34643473349E
:101060003A340D340A3400344234753469346C3403
:101070006434203444346134743465343A34203474
:10108000253473340D340A34003446346534623404
:10109000203431343834203432343034313439343B
:1010A000003472346934703470346C3465342034F4
:1010B00074346534733474340034533457343034F6
:1010C000203468346934673468340D340A340034A9
:1010D00067346F346F346434203464346134793469
:1010E0000D340A34003453345734303420346C34E3
:1010F0006F3477340D340A3400346434673469341F
:1011000020346834693467346834003464346734B4
:101110006934203469346E346934743400342034D2
:101120002D342034253473340D340A3400343034F3
:1011300078342534343478340D340A340034673448
:1011400065347434203473347734303400346C3480
:101150006534643420346F34663466340034763455
:1011600065347234733469346F346E3400346334EC
:1011700068346934703472346534763400346434DD
:101180006734693420346C346F347734003463341A
:1011900068346934703469346434003475346E34BE
:1011A000693471347534653400346C3465346434B6
:1011B00020346F346E3400346E3461346B340D344B
:1011C0000A340034683465346C346C346F34003461
:1011D0006F346B340D340A340034683465346C3445
:1011E0007034003425343434783400343034783476
:1011F0000034FF3FFF3FFF3FFF3FFF3FFF3FFF3F09
:10120000FF3FFF3FFF3FFF3FFF3FFF3FFF3FFF3FEE
:10121000FF3FFF3FFF3FFF3FFF3FFF3FFF3FFF3FDE
:10122000FF3FFF3FFF3FFF3FFF3FFF3FFF3FFF3FCE
:10123000FF3FFF3FFF3FFF3FFF3FFF3FFF3FFF3FBE
:020000040001F9
:0A000E00EC3FFF3F9F3FFF3FFF3F25
:08000000FF3FFF3FFF3FFF3F00
:00000001FF
