:0400000058EF00F0C5
:100008004782FACF42F0FBCF43F00E01C2AB0FEFAD
:1000180000F011EF00F01CEF00F0CAAB16EF00F093
:1000280018EF00F01CEF00F060EC09F052EF00F060
:10003800C2A121EF00F023EF00F02EEF00F0CAA1DB
:1000480028EF00F02AEF00F02EEF00F06FEC09F037
:1000580052EF00F0C2A333EF00F035EF00F040EFAD
:1000680000F0CAA33AEF00F03CEF00F040EF00F0D8
:100078006AEC09F052EF00F0C2A545EF00F047EF37
:1000880000F052EF00F0CAA54CEF00F04EEF00F080
:1000980052EF00F065EC09F052EF00F043C0FBFFAF
:0C00A80042C0FAFF479211001AEF09F065
:100F000000000000000000000000000000000000E1
:100F100000000000000000000000000000000000D1
:100F200000000000000000000000000000000000C1
:100F3000000040010000000E876E000E866E000E5D
:100F4000836E000E846E000E856E060E8C6E070E8C
:100F5000886E080E896E520E8A6EFC0E8B6E0F0123
:100F600026698C0E216FF10E196F070E2E6FC80EB9
:100F7000116F000E256F000E2D6F000E186F000E02
:100F8000106F000E206F000E2C6F000E0F6F000E02
:100F9000176F000E1F6F000E246F0E6916691E6911
:100FA0002369070E2B6F0D6915691D6922690F0EE4
:100FB0002A6F090E0E01F76F0B0E906F160EB76FAA
:100FC000000EA16F100EFB6F020EA36F010EA26F39
:100FD000140EB86F090E8F6F110EB56F110EF06FF2
:100FE000130EEF6F120EF16F0F0EFD6F12000E0158
:100FF000CA91F280F40E446E120E456E000E466EDB
:1010000044EC09F00E01C281CA93F282F20E446EE2
:10101000120E456E000E466E3DEC09F00E01C283C5
:10102000CA95F284F00E446E120E456E000E466EA6
:1010300036EC09F00E01C2851200080E9F6E900E6C
:101040009D6E240E9E6E670E9B6E000E9C6E000EB3
:10105000446E000E456E000E466E52EC09F0000E16
:10106000446E000E456E000E466E4BEC09F0000E0D
:10107000446E000E456E000E466E59EC09F0000EEF
:101080002B6E12002C502D102E10D8B44AEF08F001
:101090004CEF08F059EF08F002D859EF08F00500BE
:1010A000FA6E2C50FD6E2D50FE6E2E50FF6EFA50D3
:1010B00012001200385039103A10D8B462EF08F01C
:1010C00064EF08F071EF08F002D871EF08F0050046
:1010D000FA6E3850FD6E3950FE6E3A50FF6EFA507F
:1010E000120012003B503C103D10D8B47AEF08F0CB
:1010F0007CEF08F089EF08F002D889EF08F00500CE
:10110000FA6E3B50FD6E3C50FE6E3D50FF6EFA5045
:10111000120012003E503F104010D8B492EF08F079
:1011200094EF08F0A1EF08F002D8A1EF08F0050055
:10113000FA6E3E50FD6E3F50FE6E4050FF6EFA500C
:1011400012001200CAEC08F0F28EF28C74EC09F076
:101150000E01D781D783D7950F013F813F933F95EC
:1011600003000300B1EF08F058EF00F07C0ED66EDC
:10117000C20ED46E000ED36E0E01CA9BC28BDE0E61
:10118000446E110E456E000E466E2FEC09F0890E6E
:10119000D56E120076EC09F000EC09F025EC09F0B0
:1011A000DDEC08F09BEC07F00EEC09F0F7EC07F033
:1011B000B6EC08F01DEC08F01200090E0E018F6F5E
:1011C0000B0E906F110EF06F120EF16F400E956FB7
:1011D000000E966F010E936F8992969B120087B056
:1011E000F4EF08F0F7EF08F0010EF8EF08F0000E4A
:1011F000FF0A416E87504118FE0B4118876E12009E
:10120000000E0E01E16F780EE26F000EE36F000E2C
:10121000E46F000EE56F000EE66F1200620E0E0125
:10122000D86F000EDA6F000EDC6F050EDE6F000E59
:10123000DD6F120000EE01F02B0EEE6AE806FDE114
:10124000479047920001A2EF08F0000E956E080E3D
:10125000966E000E976E090E936E969A120044C019
:101260002CF045C02DF046C02EF0120044C038F0DE
:1012700045C039F046C03AF0120044C03BF045C0CA
:101280003CF046C03DF0120044C03EF045C03FF087
:1012900046C040F0120044C032F045C033F046C0B2
:1012A00034F0120044C035F045C036F046C037F087
:1012B000120044C02FF045C030F046C031F012009B
:1012C0000E01CA9B42EC08F012000E01CA955AECBE
:1012D00008F012000E01CA9372EC08F012000E0121
:1012E000CA918AEC08F01200D58E1200F29A120010
:0612F000120012001200C2
:020000040020DA
:10000000FF0FFF0FFF0FFF0FFF0FFF0FFF0FFF0F80
:020000040030CA
:0C0000008CFFFFFF9FFFFFFFFFFFFFFFD3
:00000001FF
