:040000000DEF00F010
:040008001CEF05F0F4
:10001800FF0041EF06F014C5D9F415C5DAF4DEC4C3
:10002800F6F4DDC4F7F4F86A0800F550250AD8A4F8
:1000380020EF00F022EF00F05BEF02F014C5D9F4D6
:1000480015C5DAF4DE2A000EDD22000E346E000E2D
:10005800336E33C54FF53568366814C5D9F415C500
:10006800DAF4DEC41DF5DDC41EF51DC5F6F41EC5A3
:10007800F7F4F86A0800F550640AD8B446EF00F0BF
:1000880048EF00F057EF00F01DC5F6F41EC5F7F471
:10009800F86A0800F550690AD8A455EF00F057EF40
:1000A80000F0F6EF00F016C5D9F417C5DAF4DFC48E
:1000B80018F5020EDE26DFC419F5000EDD2218C57C
:1000C800D9F419C5DAF4DEC41FF5DDC420F5010E34
:1000D8001D24186E000E1E20196E14C5D9F415C5FE
:1000E800DAF418C5DEF419C5DDF4200E236E20BE3F
:1000F80080EF00F083EF00F0010E84EF00F0000EB7
:100108001C6E2306600E2324D96EDA6A050EDA22E5
:100118001FC507F520C508F5000E0A6E0A0E096E00
:100128002EEC04F007C50DF508C50EF57EEC06F0BB
:100138000D50300FDF6E1FC507F520C508F5000EFE
:100148000A6E0A0E096ECDEC03F007C51FF508C547
:1001580020F51F502010D8B4B4EF00F0B6EF00F02F
:10016800BEEF00F02350D8A4BCEF00F0BEEF00F0C3
:1001780085EF00F02350D8B4C4EF00F0C6EF00F0CC
:10018800EBEF00F01C50D8B4CCEF00F0CEEF00F04D
:10019800EBEF00F02306600E2324D96EDA6A050E11
:1001A800DA222D0EDF6EEBEF00F0600E2324D96EFD
:1001B800DA6A050EDA22DF50186E1850096E0A6ADC
:1001C80012C50BF513C50CF568EC03F0232A200EB5
:1001D8002318D8A4F2EF00F0F4EF00F0D9EF00F004
:1001E80070EF02F01DC5F6F41EC5F7F4F86A0800B2
:1001F800F550750AD8A403EF01F005EF01F08AEF76
:1002080001F016C5D9F417C5DAF4DFC418F5020EE3
:10021800DE26DFC419F5000EDD2218C5D9F419C58C
:10022800DAF4DEC41FF5DDC420F5010E1D24186EB6
:10023800000E1E20196E14C5D9F415C5DAF418C5B8
:10024800DEF419C5DDF47DEF01F0200E236E2306E0
:10025800600E2324D96EDA6A050EDA221FC507F567
:1002680020C508F5000E0A6E0A0E096E95EC05F019
:100278000750300FDF6E1FC507F520C508F5000EC3
:100288000A6E0A0E096E5BEC05F007C51FF508C576
:1002980020F51F502010D8B454EF01F056EF01F0AC
:1002A80072EF01F02350D8A45CEF01F05EEF01F08B
:1002B8002BEF01F072EF01F0600E2324D96EDA6A99
:1002C800050EDA22DF50186E1850096E0A6A12C538
:1002D8000BF513C50CF568EC03F0232A200E231840
:1002E800D8A479EF01F07BEF01F060EF01F070EF37
:1002F80002F01DC5F6F41EC5F7F4F86A0800F550BB
:10030800750AD8B429EF01F08AEF01F01C6A14C508
:10031800D9F415C5DAF4DEC4F6F4DDC4F7F4F86AE6
:100328000800F550730AD8A49CEF01F09EEF01F085
:10033800A9EF01F014C5D9F415C5DAF4DE2A000EC8
:10034800DD22010E1C6EFCEF01F014C5D9F415C5B1
:10035800DAF4DEC4F6F4DDC4F7F4F86A0800F55000
:100368006C0AD8A4BAEF01F0BCEF01F0FCEF01F081
:1003780014C5D9F415C5DAF4DEC418F5DDC419F5C9
:10038800010E1826000E192218C5F6F419C5F7F43F
:10039800F86A0800F5506C0AD8A4D5EF01F0D7EF39
:1003A80001F0FCEF01F014C5D9F415C5DAF4DEC488
:1003B80018F5DDC419F5020E1826000E192218C505
:1003C800F6F419C5F7F4F86A0800F550730AD8A4CA
:1003D800F0EF01F0F2EF01F0FCEF01F0030E14C5AD
:1003E800D9F415C5DAF4DE26000EDD22A5EF01F0FA
:1003F8001C50D8B402EF02F004EF02F052EF02F002
:1004080016C5D9F417C5DAF4DFC418F5020EDE26CE
:10041800DFC419F5000EDD2218C5D9F419C5DAF4C0
:10042800DEC41AF5DDC41BF537EF02F01AC5F6F481
:100438001BC5F7F4000EF86E150EF76403D008001C
:10044800F55005D0F6C4E9F4F7C4EAF4EF50186E95
:100458001850096E0A6A12C50BF513C50CF568EC3D
:1004680003F01A4A1B2A1AC5F6F41BC5F7F4000E46
:10047800F86E150EF76403D00800F55005D0F6C4E1
:10048800E9F4F7C4EAF4EF500009D8A44EEF02F0FB
:1004980050EF02F01AEF02F070EF02F014C5D9F431
:1004A80015C5DAF4DE2A000EDD2270EF02F014C55D
:1004B800D9F415C5DAF4DEC4F6F4DDC4F7F4F86A45
:1004C8000800F550096E0A6A12C50BF513C50CF53C
:1004D80068EC03F052EF02F0120017EC07F0C70EB9
:1004E8002C6EFE0E2D6EDCEC06F0310E546E2E0EC8
:1004F800556E300E566E310E576EF60E2C6EFE0E81
:100508002D6E540E2E6E050E2F6EDCEC06F0400E8E
:100518002C6EFF0E2D6EEA0E2E6EFF0E2F6EF60E4F
:10052800306EFF0E316EDCEC06F08F0E2C6EFE0E78
:100538002D6E090E2F6EC40E2E6E000E316E000E3B
:10054800306EDCEC06F0230E2C6EFF0E2D6ECEEC1A
:1005580007F0326E32502E6E2F6ADCEC06F0D68E23
:1005680000017881C5EC07F0220E076E0F0E086EA9
:10057800B3EC07F0100E076E0F0E086EB8EC07F01C
:10058800040E086E000E076E98EC07F0010E086E58
:100598002C0E076E9EEC07F0010142BFD6EF02F069
:1005A800D9EF02F0010EDAEF02F0000EFF0A326E08
:1005B80032323232425132187F0B3218426FD40E27
:1005C8002C6EFF0E2D6E3BC52EF53CC52FF5DCECD1
:1005D80006F05150D8B4F3EF02F0F5EF02F01AEF3D
:1005E80003F0C5EC07F0BE0E2C6EFF0E2D6E39C55C
:1005F8002EF53AC52FF5DCEC06F0C8EC07F05050A4
:10060800D8B409EF03F00BEF03F01AEF03F05D0E17
:100618002C6EFF0E2D6E37C52EF538C52FF5DCEC88
:1006280006F0000E386E000E376E506A5350D8B47C
:1006380020EF03F022EF03F058EF03F0536A522A39
:10064800790E2C6EFF0E2D6E52C52EF52F6ADCEC3E
:1006580006F051500108516E640E5824586E000E71
:100668005920596E210E326E760EE82EFED7322EA4
:10067800FCD700D05150D8B444EF03F046EF03F054
:1006880050EF03F0910E2C6EFF0E2D6EDCEC06F091
:10069800C8EC07F058EF03F0A80E2C6EFF0E2D6E75
:1006A800DCEC06F0C5EC07F00400110E326E3A0ED1
:1006B800E82EFED7322EFCD700D03B4A3C2A030056
:1006C800D0EF02F00DEF00F00B500C10D8B46FEF24
:1006D80003F071EF03F07AEF03F00B500C10D8A47D
:1006E80078EF03F07AEF03F07FEF03F0095028EC7E
:1006F80007F0CCEF03F020EE09F00B50D9260C5090
:10070800DA22DE50DE10D8B48CEF03F08EEF03F05F
:10071800A9EF03F020EE09F00B50D9260C50DA228D
:1007280010EE02F00B50E1260C50E222DE50E65C9F
:10073800E650800A116EDE50800A1158D8B0A7EF33
:1007480003F0A9EF03F0CCEF03F020EE02F00B501A
:10075800D9260C50DA22DEC40DF5DDC40EF50BC522
:10076800D9F40CC5DAF4DEC40FF5DDC410F50D506C
:100778000F24D96E0E501020DA6E09C5DFF420EE72
:1007880002F00B50D9260C50DA22DE2A000EDD22A8
:1007980012000C6A0ABED5EF03F0D3EF03F0DBEFCB
:1007A80003F0096C0A1ED8B00A2A010E0C6E08BEA6
:1007B800E2EF03F0E0EF03F0E8EF03F0076C081E48
:1007C800D8B0082A010E0C1A000E0E6E000E0D6E1F
:1007D80009500A10D8B4F3EF03F0F5EF03F01DEF5A
:1007E80004F0010E0B6EFDEF03F0D89009360A36BF
:1007F8000B2A0AAE02EF04F004EF04F0F9EF03F05D
:10080800D8900D360E360950075C0A500858D8A003
:1008180010EF04F012EF04F017EF04F00950075E30
:100828000A50085A0D80D8900A3209320B2E04EF6C
:1008380004F00C50D8B423EF04F025EF04F029EFAE
:1008480004F00D6C0E1ED8B00E2A0DC507F50EC5A6
:1008580008F512000C6A08BE36EF04F034EF04F015
:100868003CEF04F0076C081ED8B0082A010E0C6E85
:100878000ABE43EF04F041EF04F047EF04F0096CBF
:100888000A1ED8B00A2A09500A10D8B44EEF04F04C
:1008980050EF04F074EF04F0010E0B6E58EF04F003
:1008A800D89009360A360B2A0AAE5DEF04F05FEFDE
:1008B80004F054EF04F00950075C0A500858D8A017
:1008C80068EF04F06AEF04F06EEF04F00950075E79
:1008D8000A50085AD8900A3209320B2E5FEF04F0FA
:1008E8000C50D8B47AEF04F07CEF04F080EF04F0F9
:1008F800076C081ED8B0082A07C507F508C508F50B
:1009080012000101406B416B426B436B446B456BBA
:100918000401026B0A6B126B1A6B226B2A6B0101C2
:100928004869EF0E496F7F0E4A6F4B690F0E4C6F87
:100938004D69FE0E0401006FCF0E086F7F0E106F19
:100948001869070E206F2869010E016F096B116B7A
:10095800196B216B296B03690B6913691B69070EF6
:10096800236F2B6904690C6914691C690F0E246FC5
:100978002C690201866B856B886B876B3E6B0D0E4D
:10098800746F180E0D6F0401056B066B076B3D6BDA
:100998003E6B3F6B0D6B0E6B0F6B156B166B176B0E
:1009A800256B266B276B12000301F39F280EF96F46
:1009B800FA6B040E0101106F116B126B136B146B41
:1009C8000301FB6B640ED96FDA6BDB6B040EDC6F13
:1009D800DF6BE06BE36BE46BE56BE66BE76BEA6B95
:1009E800EB6B020EEC6F3B0EED6FEE6BEF6BF06B8B
:1009F800F16BF26BF39DF46B180EF56F120EF66F38
:100A0800F76BF86BFC6B000E4D6E000E4E6E000E11
:100A18004B6E000E4C6EB394A884B392A882B39A1E
:100A2800A89AB39CA89CB39EA89E040EF36F1200CC
:100A3800FAC405F5FBC406F5A8A025EF05F027EFD5
:100A480005F032EF05F0B3A02CEF05F02EEF05F01E
:100A580032EF05F0C1EC07F056EF05F0A8A437EF28
:100A680005F039EF05F044EF05F0B3A43EEF05F0CB
:100A780040EF05F044EF05F098EC06F056EF05F06E
:100A8800A8A249EF05F04BEF05F056EF05F0B3A229
:100A980050EF05F052EF05F056EF05F0AFEC06F019
:100AA80056EF05F006C5FBF405C5FAF41100000E73
:100AB8000D6E000E0C6E09500A10D8B466EF05F0E2
:100AC80068EF05F090EF05F0010E0B6E70EF05F082
:100AD800D89009360A360B2A0AAE75EF05F077EF7B
:100AE80005F06CEF05F0D8900C360D360950075C10
:100AF8000A500858D8A083EF05F085EF05F08AEF73
:100B080005F00950075E0A50085A0C80D8900A323E
:100B180009320B2E77EF05F00CC507F50DC508F562
:100B2800120009500A10D8B49CEF05F09EEF05F0AA
:100B3800C2EF05F0010E0B6EA6EF05F0D89009364E
:100B48000A360B2A0AAEABEF05F0ADEF05F0A2EFBF
:100B580005F00950075C0A500858D8A0B6EF05F010
:100B6800B8EF05F0BCEF05F00950075E0A50085AC7
:100B7800D8900A3209320B2EADEF05F007C507F5FC
:100B880008C508F512000201B86BBA6BBC6BB00E51
:100B9800BE6F800EBF6FC06B190EC16FC26B2E0E79
:100BA800C36FC46B800EC56FC66B000E076E000E58
:100BB800086E62EC07F0000E076E000E086E54EC2B
:100BC80007F0000E076E000E086E46EC07F0000EE8
:100BD800446E000E436E1200010E0101D86FC16B06
:100BE800C26B180EC36F790EC46FC56BC66B400E0F
:100BF800C76FC86B3E0ECE6FCF6BD06B400ED16FF8
:100C0800D26B1F0EC96FCA6BCB6B200ECC6FCD6B2E
:100C18003E0ED36FD46BD56B200ED66FD76B600E9C
:100C2800D96FDA6B800EC06F120026C52AF527C56A
:100C38002BF52DEF06F024C512F525C513F52A0E60
:100C4800146E050E156E28C516F529C517F50FEC97
:100C580000F02AC5F6F42BC5F7F4F86A0800F55039
:100C68000009D8A43AEF06F03CEF06F01FEF06F0B3
:100C7800000E256E000E246E1200A00EF66E0F0EEA
:100C8800F76E000EF86E0900F5C458F50900F5C4B2
:100C980059F501EE60F1200EEE6AE806FDE101EE7D
:100CA80033F1250EEE6AE806FDE10401080E5D6FDA
:100CB800000E5E6F000E5F6F000171EF02F0D69AB2
:100CC800B390D690960E076E0F0E086EAEEC07F036
:100CD800A880B890D682000E076E000E086EA9ECA8
:100CE80007F0BC90D684000E076E000E086EA4ECC8
:100CF80007F012000EBE83EF06F085EF06F08BEFCB
:100D080006F00DC50DF50EC50EF597EF06F00DC5ED
:100D18000FF50EC510F50F1E101E0F4A102A0FC52D
:100D28000DF510C50EF51200B3944D504E10D8B401
:100D3800A0EF06F0A2EF06F0AEEF06F002D8AEEF95
:100D480006F00500FA6E4D50FD6E4E50FE6EFF6ABD
:100D5800FA5012001200B3924B504C10D8B4B7EFAF
:100D680006F0B9EF06F0C5EF06F002D8C5EF06F0B9
:100D78000500FA6E4B50FD6E4C50FE6EFF6AFA503D
:100D88001200120049504A10D8B4CDEF06F0CFEF48
:100D980006F0DBEF06F002D8DBEF06F00500FA6E8E
:100DA8004950FD6E4A50FE6EFF6AFA50120012005A
:100DB8002E0E0501806F050E816F000E246E000E49
:100DC800256E2CC526F52DC527F5800E286E050E37
:100DD800296E19EC06F01200076A0201C3ABF7EF9F
:100DE80006F0F9EF06F002EF07F0BEABFEEF06F0F3
:100DF80000EF07F002EF07F0010E076E0750120030
:100E0800070E0001B56F070EB66F070EB76F070E16
:100E1800B86F070EB96F070EBE6F070EBF6FF46A83
:100E2800F36AB46B12007DEC07F085EC04F0D8ECA3
:100E380004F004EC07F037EC07F0C7EC05F0F0EC31
:100E480005F063EC06F01200086EF0EC06F00009FD
:100E5800D8B431EF07F033EF07F029EF07F0085067
:100E6800BDEC07F01200580E0001626FDE0E636FD2
:100E7800DD0E646F4F0E656FFE0E666F67690F0EAD
:100E8800686F120007500810D8B44DEF07F04FEF05
:100E980007F053EF07F007C53DF508C53EF512000A
:100EA80007500810D8B45BEF07F05DEF07F061EF6B
:100EB80007F007C53FF508C540F5120007500810B0
:100EC800D8B469EF07F06BEF07F06FEF07F007C5CD
:100ED80041F508C542F512000301EA51EBC303F5D9
:100EE800046A03C504F5036A0310016E0450026E18
:100EF8001200600E0001AD6FAF6BB36BB16BB06BDE
:100F0800AC6B0401586B120070EC07F001C537F5A3
:100F180002C538F5010E506E120070EC07F001C5DD
:100F280039F502C53AF5120008500301DC6F07C510
:100F3800DBF3120008500301DA6F07C5D9F312007A
:100F480007C545F508C546F5120007C547F508C5A4
:100F580048F5120007C549F508C54AF5120007C546
:100F68004DF508C54EF5120007C54BF508C54CF5FB
:100F78001200076E07C5B6F21200B390C6EC06F071
:100F880012000101C09F12000101C08F1200010E62
:0A0F9800536E12000C0E12006400EC
:10FE5E00008E0B000000007A0F0000E00D00000085
:10FE6E000000000000000000000000000000000084
:10FE7E00000000000000000000C40EA80E8C0E0052
:10FE8E00002D2D465720636F646520636F6D70697A
:10FE9E006C65642077697468205843382056657203
:10FEAE0073696F6E3A2025642C204F5054206C6578
:10FEBE0076656C3A2025640A000D0A3C20504943B1
:10FECE003138463536513731204D504C414220366F
:10FEDE002E3235204C5020414443207465737420DB
:10FEEE0064656D6F3E0D0A002D56657273696F6EF7
:10FEFE002025732C204C61737420656469743A3626
:10FF0E002E4A756C792E32303235206279205A6540
:10FF1E006C6C0D0A002D2D414443207265736F6C7D
:10FF2E007574696F6E203A20257520626974732C82
:10FF3E000A002D2D465720636F646520636F6D7028
:10FF4E00696C65643A2025732025732D2D0A0021D6
:10FF5E0021233E3A2050726573737572652068696D
:10FF6E00676821204025752C0D0A0023233E3A2078
:10FF7E0053573020707265737365643A2025752C63
:10FF8E000D0A0021233E3A2041504D2073746172B8
:10FF9E0074206E6F77212C0D0A0021233E3A2041EA
:10FFAE00504D2053544F50206E6F77212C0D0A0068
:10FFBE00233E3A4144432072656164696E673A207C
:10FFCE0025752C0D0A00233E3A72756E6E696E67AA
:10FFDE00206C6F6F702025752C0D0A004A756C20F1
:10FFEE00203620323032350032313A35343A35301F
:02FFFE00000001
:020000040030CA
:0B000000ECFEF7FFBFC77FFFFFFFFF14
:00000001FF
