:020000040000fa
:080000000002040000000000f2
:020000040000fa
:0400080016030000db
:020000040000fa
:04000c005803000095
:020000040000fa
:040010009803000051
:020000040000fa
:0400140036030000af
:020000040000fa
:040018007803000069
:020000040000fa
:04001c002e040000ae
:020000040000fa
:04002000b803000021
:020000040000fa
:040024002e040000a6
:020000040000fa
:040028002e040000a2
:020000040000fa
:04002c002e0400009e
:020000040000fa
:040030002e0400009a
:020000040000fa
:040034002e04000096
:020000040000fa
:040038002e04000092
:020000040000fa
:04003c002e0400008e
:020000040000fa
:040040002e0400008a
:020000040000fa
:040044002e04000086
:020000040000fa
:040048002e04000082
:020000040000fa
:04004c002e0400007e
:020000040000fa
:040050002e0400007a
:020000040000fa
:040054002e04000076
:020000040000fa
:040058002e04000072
:020000040000fa
:04005c002e0400006e
:020000040000fa
:040060002e0400006a
:020000040000fa
:040064002e04000066
:020000040000fa
:040068002e04000062
:020000040000fa
:04006c002e0400005e
:020000040000fa
:040070002e0400005a
:020000040000fa
:040074002e04000056
:020000040000fa
:040078002e04000052
:020000040000fa
:04007c002e0400004e
:020000040000fa
:040080002e0400004a
:020000040000fa
:040084002e04000046
:020000040000fa
:040088002e04000042
:020000040000fa
:04008c002e0400003e
:020000040000fa
:040090002e0400003a
:020000040000fa
:040094002e04000036
:020000040000fa
:040098002e04000032
:020000040000fa
:04009c002e0400002e
:020000040000fa
:0400a0002e0400002a
:020000040000fa
:0400a4002e04000026
:020000040000fa
:0400a8002e04000022
:020000040000fa
:0400ac002e0400001e
:020000040000fa
:0400b0002e0400001a
:020000040000fa
:0400b4002e04000016
:020000040000fa
:0400b8002e04000012
:020000040000fa
:0400bc002e0400000e
:020000040000fa
:0400c0002e0400000a
:020000040000fa
:0400c4002e04000006
:020000040000fa
:0400c8002e04000002
:020000040000fa
:0400cc002e040000fe
:020000040000fa
:0400d0002e040000fa
:020000040000fa
:0400d4002e040000f6
:020000040000fa
:0400d8002e040000f2
:020000040000fa
:0400dc002e040000ee
:020000040000fa
:0400e0002e040000ea
:020000040000fa
:0400e4002e040000e6
:020000040000fa
:0400e8002e040000e2
:020000040000fa
:0400ec002e040000de
:020000040000fa
:0400f0002e040000da
:020000040000fa
:0400f4002e040000d6
:020000040000fa
:0400f8002e040000d2
:020000040000fa
:0400fc002e040000ce
:020000040000fa
:040100002e040000c9
:020000040000fa
:040104002e040000c5
:020000040000fa
:040108002e040000c1
:020000040000fa
:04010c002e040000bd
:020000040000fa
:040110002e040000b9
:020000040000fa
:040114002e040000b5
:020000040000fa
:040118002e040000b1
:020000040000fa
:04011c002e040000ad
:020000040000fa
:040120002e040000a9
:020000040000fa
:040124002e040000a5
:020000040000fa
:040128002e040000a1
:020000040000fa
:04012c002e0400009d
:020000040000fa
:040130002e04000099
:020000040000fa
:040134002e04000095
:020000040000fa
:040138002e04000091
:020000040000fa
:04013c002e0400008d
:020000040000fa
:040140002e04000089
:020000040000fa
:040144002e04000085
:020000040000fa
:040148002e04000081
:020000040000fa
:04014c002e0400007d
:020000040000fa
:040150002e04000079
:020000040000fa
:040154002e04000075
:020000040000fa
:040158002e04000071
:020000040000fa
:04015c002e0400006d
:020000040000fa
:040160002e04000069
:020000040000fa
:040164002e04000065
:020000040000fa
:040168002e04000061
:020000040000fa
:04016c002e0400005d
:020000040000fa
:040170002e04000059
:020000040000fa
:040174002e04000055
:020000040000fa
:040178002e04000051
:020000040000fa
:04017c002e0400004d
:020000040000fa
:040180002e04000049
:020000040000fa
:040184002e04000045
:020000040000fa
:040188002e04000041
:020000040000fa
:04018c002e0400003d
:020000040000fa
:040190002e04000039
:020000040000fa
:04019400f203000072
:020000040000fa
:040198002e04000031
:020000040000fa
:04019c002e0400002d
:020000040000fa
:0401a0002e04000029
:020000040000fa
:0401a4002e04000025
:020000040000fa
:0401a8002e04000021
:020000040000fa
:0401ac002e0400001d
:020000040000fa
:0401b0002e04000019
:020000040000fa
:0401b4002e04000015
:020000040000fa
:0401b8002e04000011
:020000040000fa
:0401bc002e0400000d
:020000040000fa
:0401c0002e04000009
:020000040000fa
:0401c4002e04000005
:020000040000fa
:0401c8002e04000001
:020000040000fa
:0401cc002e040000fd
:020000040000fa
:0401d0002e040000f9
:020000040000fa
:0401d4002e040000f5
:020000040000fa
:0401d8002e040000f1
:020000040000fa
:0401dc002e040000ed
:020000040000fa
:0401e0002e040000e9
:020000040000fa
:0401e4002e040000e5
:020000040000fa
:0401e8002e040000e1
:020000040000fa
:0401ec002e040000dd
:020000040000fa
:0401f0002e040000d9
:020000040000fa
:0401f4002e040000d5
:020000040000fa
:0401f8002e040000d1
:020000040000fa
:0401fc002e040000cd
:020000040000fa
:040200002e040000c8
:020000040000fa
:040204002e040000c4
:020000040000fa
:040208002e040000c0
:020000040000fa
:04020c002e040000bc
:020000040000fa
:040210002e040000b8
:020000040000fa
:040214002e040000b4
:020000040000fa
:040218002e040000b0
:020000040000fa
:04021c002e040000ac
:020000040000fa
:040220002e040000a8
:020000040000fa
:040224002e040000a4
:020000040000fa
:040228002e040000a0
:020000040000fa
:04022c002e0400009c
:020000040000fa
:040230002e04000098
:020000040000fa
:040234002e04000094
:020000040000fa
:040238002e04000090
:020000040000fa
:04023c002e0400008c
:020000040000fa
:040240002e04000088
:020000040000fa
:040244002e04000084
:020000040000fa
:040248002e04000080
:020000040000fa
:04024c002e0400007c
:020000040000fa
:040250002e04000078
:020000040000fa
:040254002e04000074
:020000040000fa
:040258002e04000070
:020000040000fa
:04025c002e0400006c
:020000040000fa
:040260002e04000068
:020000040000fa
:040264002e04000064
:020000040000fa
:040268002e04000060
:020000040000fa
:04026c002e0400005c
:020000040000fa
:040270002e04000058
:020000040000fa
:040274002e04000054
:020000040000fa
:040278002e04000050
:020000040000fa
:04027c002e0400004c
:020000040000fa
:040280002e04000048
:020000040000fa
:040284002e04000044
:020000040000fa
:040288002e04000040
:020000040000fa
:04028c002e0400003c
:020000040000fa
:040290002e04000038
:020000040000fa
:040294002e04000034
:020000040000fa
:040298002e04000030
:020000040000fa
:04029c002e0400002c
:020000040000fa
:0402a0002e04000028
:020000040000fa
:0402a4002e04000024
:020000040000fa
:0402a8002e04000020
:020000040000fa
:0402ac002e0400001c
:020000040000fa
:0402b0002e04000018
:020000040000fa
:0402b4002e04000014
:020000040000fa
:0402b8002e04000010
:020000040000fa
:0402bc002e0400000c
:020000040000fa
:0402c0002e04000008
:020000040000fa
:0402c4002e04000004
:020000040000fa
:0402c8002e04000000
:020000040000fa
:0402cc002e040000fc
:020000040000fa
:0402d0002e040000f8
:020000040000fa
:0402d4002e040000f4
:020000040000fa
:0402d8002e040000f0
:020000040000fa
:0402dc002e040000ec
:020000040000fa
:0402e0002e040000e8
:020000040000fa
:0402e4002e040000e4
:020000040000fa
:0402e8002e040000e0
:020000040000fa
:0402ec002e040000dc
:020000040000fa
:0402f0002e040000d8
:020000040000fa
:0402f4002e040000d4
:020000040000fa
:0402f8002e040000d0
:020000040000fa
:0402fc002e040000cc
:020000040000fa
:040300002e040000c7
:020000040000fa
:040304002e040000c3
:020000040000fa
:040308002e040000bf
:020000040000fa
:04030c002e040000bb
:020000040000fa
:040310002e040000b7
:020000040000fa
:040314002e040000b3
:020000040000fa
:040318002e040000af
:020000040000fa
:04031c002e040000ab
:020000040000fa
:040320002e040000a7
:020000040000fa
:040324002e040000a3
:020000040000fa
:040328002e0400009f
:020000040000fa
:04032c002e0400009b
:020000040000fa
:040330002e04000097
:020000040000fa
:040334002e04000093
:020000040000fa
:100400004f2121000eff26000e0188000000000091
:10041000000020000000e000020032000001200087
:100420002002880014000700550107000000e000ca
:1004300003003a0080f7220001002000020037008c
:100440000000200001002000810f70000100320038
:100450000f000700000020000000e0000200320052
:1004600000000200000000007c2a020000000000e2
:100470000040da000000fe00802320000000e000c1
:1004800002003200002020009001880000000600d9
:10049000a1028800800478000000eb001f003700f4
:1004a000e284440054a0b4009905ba00e2844400f8
:1004b00054a0b4009906ba00e284440054a0b400e9
:1004c0000006eb00476fde00fd07b200ae018800ba
:1004d000636ce10003003a000ad801000000eb0061
:1004e0000e003700606ce10008003a00004deb00a0
:1004f0000a05e800020039003420ec000af0a000f0
:100500008b05e900f9ff3e00040037006168e10057
:10051000010032000086eb000b00070019c7ba008b
:100520001905ba000e04e00003003a000a00e000da
:10053000dbff3a0000000600fe07b200ae028800b2
:100540008a047800f5ff37000cd0a300e20f4d00bd
:100550001c00390089027800354dba000a05e80010
:10056000020039003420ec000af0a0008b05e900fd
:100570000f003200254dba000a05e80002003900dc
:100580003420ec000af0a0008b05e90008003200de
:100590000c00e0000600320015cdba000a05e800a4
:1005a000020039003420ec000af0a0008b05e900bd
:1005b0008984e80054a0b4000b00e000e2ff3a0098
:1005c000000006009902ba00055d78008b05e9007d
:1005d000f7ff3200c82ade00055d78008b05e900d0
:1005e000f3ff32000c00e000f1ff320019ddba0029
:1005f000eeff3700002f0400000000002e2f040043
:1006000000000000422f040000000000120a040055
:100610000000000000000400000000004e0a04007a
:10062000000000007a0a0400000000003600f80014
:10063000809fbe00829fbe00849fbe00869fbe003a
:100640000000fa00c028a9000000eb0051190700c3
:100650000080fa004f03be004f02be004f01be00f3
:100660004f00be003600f900004006003600f800da
:10067000809fbe00829fbe00849fbe00869fbe00fa
:100680000000fa0048190700c048a9001000200027
:10069000401907000080fa004f03be004f02be0061
:1006a0004f01be004f00be003600f90000400600ba
:1006b0003600f800809fbe00829fbe00849fbe006f
:1006c000869fbe000000fa00c068a900200020003c
:1006d000301907000080fa004f03be004f02be0031
:1006e0004f01be004f00be003600f900004006007a
:1006f0003600f800809fbe00829fbe00849fbe002f
:10070000869fbe000000fa00c088a90030002000cb
:10071000201907000080fa004f03be004f02be0000
:100720004f01be004f00be003600f9000040060039
:100730003600f800809fbe00829fbe00849fbe00ee
:10074000869fbe000000fa00c608a90070002000c5
:10075000101907000080fa004f03be004f02be00d0
:100760004f01be004f00be003600f90000400600f9
:100770003600f800809fbe00829fbe00849fbe00ae
:10078000869fbe000000fa00214680000010200075
:10079000008060000000e00003003200c508a900ee
:1007a000c0002000fb180700204680007000600099
:1007b0000000e00003003200c488a900a00020006f
:1007c000f418070020468000610060000000e0008f
:1007d00003003200c408a900b0002000ed18070093
:1007e000ffff37003600f800809fbe00829fbe00ea
:1007f000849fbe00869fbe003200f8003400f800df
:1008000010002000a00188000020200000d0fe0081
:100810000200fa0061608000010f78009081800082
:100820000000e00003003200918180001e0078008b
:10083000010001000b68a9000080fa003400f900f3
:100840003200f9004f03be004f02be004f01be0050
:100850004f00be003600f900004006000040da00fc
:100860000000fe000a00fa0011002000b1bf9f0046
:10087000c0bf9f006a805700940b07004fb89700d5
:100880000080fa00000006000a00fa005100200073
:10089000b1bf9f00c0bf9f006a8057008d0b07004b
:1008a0005fb897000080fa0000000600889fbe0035
:1008b00080047800909080000000e00004003a007e
:1008c0000e0007000084eb000000e0000800350087
:1008d000989080000900e000050032000900440003
:1008e000060007000000e00001003d000084eb006e
:1008f000080078004f04be00000006008000780069
:100900000100e00003003a00000020009090880001
:10091000000005000080eb0002002000828f5000e4
:1009200002003e00919088000000eb0000000600ed
:100930000800fa0010079800210798003207980075
:10094000be009000010f7800070037002e009000d5
:1009500010407800ae0090008100e8002107980068
:10096000571707001e0fe9001e0078000000e00086
:10097000f6ff3a003e0090000080fa0000000600fa
:1009800000000500889fbe008a9fbe008c1f780073
:10099000980007009f00330003866c006450e1005c
:1009a0002e0032006420e100330032006150e1008b
:1009b0002f0032006120e1003100320085855500b2
:1009c000eb07b000090020000804200005003700f4
:1009d0000804440089844c000a00310006034300e7
:1009e00087834b000001530081815b00f8ff3300d7
:1009f0000203be000800a0000804440089844c00e3
:100a0000f6ff3900c639dd008301730001003200b2
:100a1000130020008904d1000884d3000998a300a2
:100a2000050032000800a7000300a0008904d100df
:100a30000884d3008b05e8008904d1000884d30022
:100a40000001eb000281d2002f00070001f0a1009d
:100a50000cf0a70001f0a000770037006420e1004f
:100a6000790032000801be000200be00f7ff370027
:100a70006120e100740032006000b800f3ff37002d
:100a80000000200001f82700f0ff3700f4ff2f00de
:100a9000b40037000001be00410007000470a70049
:100aa00003f0a10003f8a30013003a006509b100a8
:100ab00010003200090035006928e100020035000d
:100ac000010028000000050000004000818048006f
:100ad0008502e900fcff3a0000000600f88f4200a2
:100ae000050035008100d1000080d3008502e800b8
:100af000fcff3a00000006008000eb00000005004b
:100b00006011b800b20037008100200061805500fc
:100b10000b003d000b00200061fe2f000100e100f2
:100b20001d00340082817100610164008904d100dc
:100b30000884d3000000e800faff3a0071002000aa
:100b400061006400030070000200600009003200d0
:100b500061044400e0844c000988a50005003200cf
:100b60008b05e8006808e10002003a008904d10022
:100b70000884d300f20f20000258e10005003d0078
:100b8000c75ddd00f907b2008980750008007800b4
:100b9000000006000bf827008b007800000005001d
:100ba000c70ade00f107b200f50fb20008003200fc
:100bb000e1cf4200020032000170a00024000500d5
:100bc000810f700001003200040805004400050098
:100bd000810f700002003a00140005008502e90050
:100be0000000400081c04800fcff3b000170a000f5
:100bf000240005000004be00e9ff07000003be005a
:100c00000405be000200be00e5ff0700844f75002a
:100c1000000006000200be006450e100050036003e
:100c20006420e100020036000968a30001003a00d8
:100c30000800be000160a0004f0678004f05be000e
:100c40004f04be0000000600f0ff2f00f1ff270058
:100c5000f9ff3700889fbe008a9fbe008c1f780076
:100c6000e4ff0700ebff330003866c006450e100f3
:100c7000240032006420e100270032006150e100ce
:100c8000220032006120e100210032008b85420009
:100c9000eb07b1000134b800003ab8000804420084
:100ca00089844a00013ab8000030b80088804000ca
:100cb00009014a0004003300000040008180480020
:100cc000020149008b05e900c909dd0083017000bc
:100cd0000100320013002000c814de004814dd00bb
:100ce0004709de001200b200c808de000884700068
:100cf00085ff070001f0a1000cf0a70001f0a000a3
:100d0000cdff37006120e100cfff32000801be00b7
:100d10000200be00f7ff37006150e100fcff3a001f
:100d2000c9ff37006022b800060220000000d00092
:100d30008180d2000482d2008582d2000000a0000f
:100d40000202520083825a00030031000202420074
:100d500083824a000000a1000603e900f3ff3a0085
:100d600000000600889fbe008a9fbe00841f780096
:100d7000a0ff07004f00780011003300f0ff2f00a4
:100d8000838f6c0006003b00040565000a00a70085
:100d90000800370009f0a600100020000800370006
:100da000820f5400838f5c00030039001000200084
:100db00001003e000000200009f0a7000000ea004a
:100dc0004f05be004f04be000000e000000006001a
:100dd000889fbe008a9fbe000082700004027100de
:100de00004827100260032000004be000200be0032
:100df0006011b8006b092000950220000182cf002d
:100e00000a0039000541b1000082cf000700390017
:100e10000541b1000982cf00040039000541b1004d
:100e20000882cf00010039000541b100054252009f
:100e3000120032000a003b008281710061016400ef
:100e40008100d1000080d3008984d3000884d300be
:100e50008b05e8000442e800f7ff3a00070037007e
:100e60000804440089844c00000048008180480048
:100e70008b05e9000442e900f9ff3a0022ff070070
:100e80004f05be004f04be00000006008106210091
:100e90006b000700800078000080eb000100e0009c
:100ea0000400350081062100a00020000200070098
:100eb0004f80de0000000600889fbe008a1f780079
:100ec0000004be00c900900069009000808f5000af
:100ed0000600390009007800b8000700800078009b
:100ee0000080eb000100e0001700350008457800a5
:100ef0004900900008587800c00498001900780054
:100f000000b8a30004003a0000a8a30008003200c3
:100f1000ea4f540006003a00090078000d0007006f
:100f2000800078000080eb000100e00006003a003d
:100f300000c020001900600002003200490090004b
:100f4000e00498000a80fb004f0578004f04be00c3
:100f500000000600889fbe008a1f78000004780009
:100f60000800e0000d003a00680b21007005440005
:100f70008004eb00580078000000e000040032001c
:100f8000f4ff07000000e00001003d008084eb005a
:100f90008a0f5400f7ff3a002500370000002200b6
:100fa000180060008004eb0021003200a8049000cb
:100fb0000f00370009015100384090000000fb008d
:100fc000890078005afe07000000e00007003c009e
:100fd000280090004004980060049800500c98008d
:100fe0001890a0008084eb0011003700808444003a
:100ff00048019000828f5400eeff390028009000d5
:10100000400498009800780002c02000028160002f
:1010100001003a003800900001e8a300020032000d
:101020006004980001003700500c98008004eb0029
:10103000090078004f0578004f04be00000006004c
:10104000889fbe008a9fbe0080047800010478005b
:101050002c003700c800900068009000808f50007e
:101060000400390008007800540007000000e00088
:1010700037003500004020001800600009003200f1
:10108000a1002000090078004200070080057800d8
:101090000b00e00003003200618514000a85450062
:1010a00004003700090078003400070000057800cc
:1010b0008005eb0048009000e80090008080500020
:1010c0008a8f500002003100010578008005eb0096
:1010d0000a0178008900780021000700480090008c
:1010e0000a004000400498000b00e00004003200b9
:1010f0000800780097ff07000000e00014003a00a5
:101100008a8444001904e000d2ff3a0000802000e5
:101110001800600006003200080078008dff07000c
:10112000800078000080eb000100e00009003a0038
:1011300001c02000988060000000eb000500320034
:1011400048009000600498000000eb0001003700a8
:101150000080eb004f05be004f04be0000000600fb
:101160008001780002003700b15978000201e900df
:101170000200e000fcff3a0000000600800078005a
:10118000010178003104e000fdff3a000000510049
:10119000000006000001eb0000027800b04178007a
:1011a00081cf510001003a00040178000304e000ff
:1011b000f9ff3a000200780000000600889fbe0098
:1011c0008a1f780000047800c80090006801900031
:1011d0000000eb00828f50003c00390018007800be
:1011e0002200290002016000e20f510007003200d6
:1011f000012020000000e000010035000120240053
:10120000008c70000080eb003000370002002600e8
:1012100002006000820f500009003a003800900080
:10122000808f5000060039000800780049ff070051
:10123000800078000080eb000100e00023003a000d
:101240001805780000c020000000650018003a0072
:10125000a80490006002200008004000808f540025
:1012600013003a0000202000d90507002004980050
:101270000000e00005003a002904980049049800a5
:101280008904e80039049800080037000a60a000cb
:101290000a0c780040049800012020008080400063
:1012a00031049800400c9800500c98000c00070086
:1012b00028009000500498003800900060049800c6
:1012c00000002600180c70000000eb004f057800ad
:1012d0004f04be000000060020a12000620037007d
:1012e000881f7800c82021001804e00003003a009d
:1012f000f9ff070020c0b300004c78004f047800cd
:1013000000000600889fbe000004780008007800f6
:1013100010ff07008004780000042000180060001f
:101320000200320028009000db0407000000eb0000
:1013300020049800384090000004e00005003500cb
:101340000000fb0047fd07000000e0000100320044
:101350008084eb00181090000000e00008003200cc
:1013600049fd07000000e000010032008084eb002e
:1013700018109000c80407000000eb00101498003b
:101380000008200018006000150032000001eb008a
:101390006000b8000202d000830b2100030242006b
:1013a000940f140005003a000000400081804800be
:1013b000008041000008eb0006003700610040009b
:1013c000e08048000201e800e80f5000e08f58007c
:1013d000f0ff3a0008007800af0407000e00370065
:1013e000000c780000c0eb00304498006002200040
:1013f0000800400020049800400498005004980021
:10140000400c980060049800500c980070049800fc
:1014100076004400000c9800090078004f04be00dc
:1014200000000600881f78000004eb006140b8004f
:10143000e2ff2f00f3ff2f006e0a0700620c21006d
:1014400080004100110078000000e000010032003f
:10145000acff07000804e800e80f5400f3ff3a006f
:101460004f04780000000600010020000100e000a9
:1014700009003200010080000100e0000600320097
:101480008100e900010088008100d0000200800096
:10149000828040008008780000000600889fbe001f
:1014a0000004780001007800820478008801780048
:1014b0000901780011002000a9040700890f5000dd
:1014c000010032000004eb00080078004f04be0069
:1014d000000006000000fa00e88157004fb99700ad
:1014e00081062100e0a42000cc0007000080fa0063
:1014f00000000600889fbe00000478000203be00c2
:101500008104780008027800890178001200200028
:101510000600be00b5070700890f50000100320029
:101520000004eb00080078004f04be000000060035
:101530006800fa00889fbe008a9fbe008004780081
:1015400001047800820578000305780084007800a3
:1015500000f92f000f004000a2070700d98f9f005d
:10156000fb8f9f000000eb00a09f9f00e88f9f0073
:101570009a84fb000904fb008904ea00cf4cde00da
:1015800050022000800f54000d003200e18f540003
:101590000b003a00090178008a0078007f889700e4
:1015a000df89970003000100f08f9f000000e0003a
:1015b000950032002f9897000000e800a09f9f0040
:1015c0000905450050022000800f5400040032003d
:1015d0000800e000e6ff3a002f9897008b003700e4
:1015e0000000eb00809f9f00f0979f00e0979f0016
:1015f000d0979f00c0979f00b0979f0007003700cb
:10160000012021000100500000004000411f210086
:10161000808040004f98970011007000c09f9f008d
:101620000a04780008057800ba4478008900fb00b5
:10163000002021001a0507000000e000f0ff3a003a
:10164000a1c2b30081cf54000e003a008f889700ea
:101650000180e900808f9f0010007800b09f9f00fc
:101660000000e00005003d000000ea00b09f9f0080
:101670004f9897000020a000c09f9f000804e8003a
:1016800010003700b09f9f00880078000000eb003a
:1016900005003700f3ff2700830f500002003200df
:1016a000ea00b900000041000104780088007800d9
:1016b0003101fb000203b100e90f5100f5ff3600d4
:1016c000b09f9f00e0c2b300984f100002003200ac
:1016d0000080eb0019003700a0c2b300d84f100003
:1016e00007003a008f8897000180e900808f9f00f3
:1016f00010007800909f9f000804e8001000370059
:101700000000eb00909f9f008800780005003700e4
:10171000f3ff2700830f500002003200ea00b900f7
:101720000000410001047800880078003101fb00ce
:101730000203b100e90f5100f5ff3600909f9f00b2
:10174000984478008900fb00c01e2100d4040700e3
:101750000000e000020032000804e8000100370049
:101760008044eb00a97f9f0080c6b30080cf540067
:1017700006003a0098cf140010003a00664050006e
:10178000a07f9f000804e8000c003700c0c6b3002b
:1017900080cf540009003a0098cf140007003a00a7
:1017a00067404000d84f100002003a006e405000e1
:1017b0000100370010c7b300a07f9f001801fb0095
:1017c000c3fb2f008f81410001f92f008f80400063
:1017d00020f92f000f004000150007000000e00076
:1017e00009003a00c1fb2f008f80400020f92f0034
:1017f0000f004000210607000000e0000200350055
:101800000805e8005aff37000080eb004f05be00d6
:101810004f04be000080fa000000060003027800ba
:101820008201780001017800a1a7200040ff370065
:10183000889fbe008a1f78000004780082447800e8
:101840000305780070c6b30080cf54001a003c0036
:1018500000c0e90080cf5400d4003d006d4050002e
:1018600080cf54007c0032000b003c0071405000df
:1018700080cf54003f013c0000c0e90080cf5400fd
:10188000ca003d0050c2b30080cf54003601320080
:101890007c4040000500370030c6b30080cf5400c4
:1018a0001a0032001f003c0000c0e90080cf540045
:1018b00030013a00bd003700f0c6b30080cf5400bd
:1018c0006500320007003c006640500080cf5400a5
:1018d000140032006540400080cf540025013a00da
:1018e000de00370050c7b30080cf54005a003200ea
:1018f0006340400080cf54005700320002c7b3005d
:1019000082cf54001b013a00090137001181e90020
:10191000820878002808900000054500124d7800e4
:101920001a01370008689000c2c6b300824f500009
:1019300007003a0011017800640051008008780027
:101940001000be004f89de008201780014003700cd
:1019500012c7b300824f500003003a001102780012
:101960006800520005003700a2c6b300824f500045
:1019700006003a00910278006880520080087800e2
:101980005001be004000be00050037001180e90094
:101990008008780010007800cf80de006109b9006f
:1019a000009cbe000294be00086a900085c6b30089
:1019b000854f52000d00320025c6b300854f5200fe
:1019c00004003a000000fb00cf80de006109b9008e
:1019d0000800370045c7b300854f520003003200ae
:1019e000e6c24200854f520004003a00cf80de007c
:1019f0006109b900009cbe000294be003802be001e
:101a00002803be0028089000e00f5200e08f5a0023
:101a1000e00f5b00e08f5b0003003d0080004500ad
:101a2000d2c2b3000a003700b81090000118a3001a
:101a30000300320080004500b2c2b300040037004a
:101a40000108a300540032008000450002c2b30028
:101a5000824878004e00370008689000c2c6b30084
:101a6000824f500008003a001103780064005300d0
:101a7000800878001002be006033b8000400be0089
:101a80000601be001400370012c7b300824f500099
:101a900003003a0091027800688052000500370088
:101aa000a2c6b300824f500006003a00110378002e
:101ab00068005300800878005001be004000be005e
:101ac000050037001180e9008008780010007800d8
:101ad0008000eb006011b800009cbe000294be00c4
:101ae000086a900085c6b300854f52000d00320091
:101af00025c6b300854f520004003a000080fb0069
:101b00008000eb006011b8000800370045c7b30043
:101b1000854f520003003200e6c24200854f52005a
:101b200004003a008000eb006011b800009cbe0089
:101b30000294be00381090000038a3001600320056
:101b40003800be002801be00e00f5000e08f5800b2
:101b5000e00f5900e08f59000f00320080c7b3003a
:101b600080cf54000300320080c5b30080cf540002
:101b700009003a00280890008000450002c3b30025
:101b8000824878000000e80080004500894878001d
:101b90000000e800200c980028089000000545008f
:101ba0007a049800894078006c003700086990003a
:101bb000c0c4b300804f510006003a009103780082
:101bc00068805300800878005001be004000be00cd
:101bd000050037001101780064005100800878008a
:101be0001000be00b9070700009cbe000294be00b2
:101bf000b8009000280890000100e00003003d00bc
:101c000080004500d2c2b3000a003700b81090002f
:101c10000118a3000300320080004500b2c2b300e7
:101c2000040037000108a3000500320080004500d1
:101c300002c2b300824878000000e800200c98003f
:101c400028089000000545007a0498008900fb00f0
:101c500008007800530007004e0037000869900024
:101c6000c3c6b3001180e900834f51002400320045
:101c70000a003c00e4c15100834f510027003200ac
:101c800083c1e800834f51001500320020c6b30025
:101c9000804f510020003a000a00370043c7b300cc
:101ca000834f51001d003200e6c14100834f5100b7
:101cb0001a00320010c7b300804f510016003a00de
:101cc000060037001180e9008008780010007800d5
:101cd00028649000084878002e0037001180e90041
:101ce000800878001000780018129000cfa2de0063
:101cf000612bb9000498be000690be002500370095
:101d0000800878001000780018119000cf91de0054
:101d10000288be001f0037001180e90080087800ab
:101d20001000780018149000080878001900370097
:101d30001181e9008208780012027800cfa2de004b
:101d4000612bb900049cbe000694be00a808900058
:101d5000010545007a04980080407800080078006a
:101d60008f0307000b00370028089000000545008e
:101d70000500370028089000000545000904e00030
:101d800001003a0059c2b300094d78000000e80094
:101d9000200c98000000eb004f0578004f04be00b7
:101da000000006002f04b000889fbe008a9fbe007e
:101db0008c9fbe008e1f78000007780081f79f007f
:101dc0003e04be002e05be000e1090000000e00094
:101dd00002003d0060002000001798008e0078008f
:101de00020fb2f000f00400043030700e20f5000cc
:101df0000a003a0030002000400f9800b1c9b3003b
:101e00000ff0970081404000c0122100e1cf500048
:101e10000d003e00801221000b0037000000e000a2
:101e20000f00340030002000400f9800b1c9b3000b
:101e30000ff197008140410040132100e1cf500095
:101e400001003e0000132100fe009000b048780021
:101e5000b06878001040780090409800f300370098
:101e60000000e00005003a0022fb2f000f014100b6
:101e7000001978008001eb00e70037006022b8000d
:101e80006033b8000800be000a01be005706070014
:101e90000000e00001003d000bf0a2007059270097
:101ea0009f9897000088b900026a2800130020005c
:101eb000b2060700640650009c9f9f0013003b0081
:101ec00063061600c0ff2f00000666008c01ea00c2
:101ed000939f9f008d1321000800be000a01be00e1
:101ee000070037000c08a300030032003d02be00cb
:101ef0002d03be00440707000c86d100e88646008b
:101f00000c00e000f7ff3c00180037000c00e00078
:101f100018003200c0ff2f00000666009c9f9f0043
:101f20008d1321006000b8000200200003ff230091
:101f3000070037000c08a300030032003d02be007a
:101f40002d03be00300707000c86d100e88646004e
:101f50000c00e000f7ff3c000002be000203be00e0
:101f60000800be000a01be002a0607000004be00e9
:101f70000205be008e10900060c6b3000ff29700fd
:101f8000804f5200040032006000200062c4b300a1
:101f9000824f520002003a009f9a97006a804200e6
:101fa00081004000f1b79f0001037800f30f530058
:101fb0000200340037012000f7b79f0000c3b300d0
:101fc000c0779f0056fb2f000f0343000e007800e0
:101fd000a0b79f00060778003d0037000800be004c
:101fe0000a01be00d80607000006be007fb19700b8
:101ff00068015100f2b79f004240a9000c00340074
:10200000fd0607000002be000203be000800be007d
:102010000a01be00720707006022b80046782d0052
:1020200077192400f80607000004be000205be0070
:10203000e80047008e0020000802be000a03be0030
:10204000b4b79f00c5b79f00d6b79f00e7b79f0002
:102050000c01be00010478000c003700a400200031
:1020600005002000c0fd2f000f00400010020700f7
:102070006fa89700ffa897000fb197009fb1970036
:1020800005c3b300056441000001be00e00f51002c
:10209000e08f5900030034000e07e900e10f47000c
:1020a000eeff3a00880078003fb49700cfb4970065
:1020b0005fb59700efb597000200370000c3b3008b
:1020c000806078000e07e900fcff3b006887400055
:1020d0007fb397000600e000070034006022b800dc
:1020e0006033b8000800be000a01be00c405070046
:1020f0000000e000b9ff3c000e0378002fb7970006
:1021000051fb2f008f804000010353009f9b9700dd
:1021100067804300909f9f00020037000603e9009c
:102120000000e900010178008200780003c3b300d9
:10213000b1cf1100f9ff3200909f9f008e119000e7
:1021400061c6b3000ff29700814f520003003200c6
:1021500061c4b300814f520002003a000000e80061
:102160000a0037001000200051c6b3008ff297001c
:1021700081cf5200050032000540780050c4b20003
:102180000080fb000000e9004f00de0083014000fa
:10219000868f510001003400860178000300e000c2
:1021a0001d00350000c3b300868f510006003d00be
:1021b000030241006940400041c3b30094cf1000c6
:1021c00001003c00694050008300e90081004100ab
:1021d00001003700840178000302e9000103780060
:1021e000a142780080cf5200faff320091c3b300c1
:1021f000814f500001003a00054be8000400e00068
:1022000005003d000201e9008301e8001f9b9700e3
:102210000603e800969f9f008ff397008700fb005e
:102220001f9a97000e007800060007004f077800fd
:102230004f06be004f05be004f04be002f04b10084
:1022400000000600f0874700889fbe008a9fbe00fe
:102250008c9fbe008e1f78000004780081447800b7
:102260000205be00040678000b00e00002003c00fe
:102270001b002000ea20210060c6b30080cf54007c
:102280000e00320060c4b30080cf54000b00320057
:1022900070c6b30080cf54000300320070c4b30096
:1022a00080cf540085003a00e40f460083003500db
:1022b00008109000800f560080003d000c06e800da
:1022c00060c6b30080cf54001000320060c4b30079
:1022d00080cf54000d003200381090000038a30069
:1022e00004003a0008109000808f550001003d0066
:1022f0000b149800081090000c0050000014980077
:1023000002003b000000eb0000149800c808900099
:10231000780090000c00e00028003c000100400024
:1023200002c3b300024878008100e800410c980025
:10233000081090000000e00003003c0038109000fe
:102340000038a30006003200780090000100400031
:10235000e2c2b300024878008100e800410c980016
:10236000081090008c00ea00810f500001003d0031
:102370000006ea008c00ea00510c980000064600b6
:102380000c1498008b0f5600010034000b067800e7
:102390006c0c9800f8009000480890000080400005
:1023a0000c0178008a0078006dfb0700081090008f
:1023b0000c0650007c0c9800940037008c8f550060
:1023c00019003d00010040000b0178008a007800f0
:1023d00063fb07004808900000804500400c98000f
:1023e0008b0556005b0c9800881090000100e000ff
:1023f00003003c00b81090000138a3000700320031
:10240000f800900000804000e1c2b300014878006d
:10241000680890000000e800600c98000810900028
:10242000700c980079003700010040000c01780022
:102430008a0078004afb0700480890000000460028
:10244000400c98008c855500881090000100e00039
:1024500003003c00b81090000138a30006003200d1
:10246000f800900080804000e2c2b300824878000b
:102470000000e800400c980008109000808f550084
:102480000100340080057800f800900048089000b2
:10249000008040008c0045000b01780030fb0700f5
:1024a000480890000b004000400c98000810900075
:1024b0008b0550005b0c98005400370048089000d2
:1024c000f8009000808040009a4878000000e80002
:1024d000400c9800881090000100e00003003c00d0
:1024e000b81090000138a30006003200f8009000f8
:1024f00080804000e2c2b300824878000000e8001b
:10250000400c9800081090000000e000100034001b
:102510008b05e900808f55000100340080057800ac
:10252000f800900048089000008040008a00e80011
:102530000b0178000afb0700480890000b004000e0
:10254000400c9800081090008b0550005b0c980020
:10255000f80090004808900000804000095878007a
:102560000007e8000c00e00004003500b1c2b30031
:10257000014878008e04780004003700d1c2b3000f
:10258000014878008e0478000c06ea007d8557002b
:102590008006eb0009003700a20020008c007800c4
:1025a00072805700310007007fb097008fb8970006
:1025b000016d7800000678008d06e8000c00e00050
:1025c000f5ff3c000d00e00009003a008e047800a1
:1025d00000c3b300805c7800050037008d06e90079
:1025e000fc8057000d80400001c3b30090dc400028
:1025f0000d00e000f9ff3c00f80090004808900052
:102600000080400080845400690c980038109000cd
:1026100074006000f00f50000e003a00c8089000ef
:102620002808900000804000d80890000100400079
:10263000e808900001004000f80890000100400008
:10264000a8109000810f500002003d000080500053
:10265000300c98004f0778004f06be004f05be00b3
:102660004f04be000f01b100000006008002780098
:1026700001037800050009000203d80080017800fa
:10268000830a78008299b900820053009102980071
:1026900005007800000006000000e0002f00320076
:1026a000c0017800e38f51002c0036000308a3001e
:1026b0002a003a00419080000100e0000200320050
:1026c000810f5000040031001100980040908800f4
:1026d0001600370082007800110190000200e0002f
:1026e00002003200800f5100faff39001102780019
:1026f00084824000850f500018003900808f5200fe
:1027000003003a0083084200010078000700370008
:102710000200e0000300320083014000830f5100fb
:102720000e00390012009800900098009000900070
:102730000100e0000900320010014000828f5000cb
:1027400006003a00622021000009eb001001780029
:10275000110841009100900011009800000006004f
:10276000889fbe008a9fbe008c9fbe008e1f78008f
:1027700000067800010478000200780083047800e5
:102780008881b900020778000e00e00042003200a4
:102790000800e000410032008e057800c90090007a
:1027a00069009000808f5000040039000900780013
:1027b00082fa07000000e0002900350000402000f8
:1027c000190060000a0032000b017800a10020000f
:1027d0000c007800a8000700800678000d00e000db
:1027e00006003200610516000a8546000400370025
:1027f0000b0578008006eb00010037000b05780020
:1028000049009000e9009000808050008a8f5000bd
:1028100002003100010578008006eb000a01780013
:102820008c0078004efa07008a8555004900900018
:102830000a004000c00498000d00e00004003200cf
:1028400009007800c3f907000000e00004003a0026
:102850000b00e000020032000a064600cfff3700fe
:10286000008020001900600002003200090078009a
:10287000b8f9070000c02000190060000200320013
:1028800049009000e00498008b05570005000900fe
:102890008885d800010037000000eb004f07780062
:1028a0004f06be004f05be004f04be0000000600ec
:1028b000881f78008a9fbe008c9fbe0000047800ad
:1028c0000205be000406be000401be000a00be00f0
:1028d0002a040700008cbe000c01be00450507005d
:1028e0000005550081855d002a0498003b0498008e
:1028f000080078004f06be004f05be004f04780068
:1029000000000600889fbe0000047800319080001f
:102910000100e00002003200010078000d003700e5
:10292000419080008020210004003700910f540066
:10293000250036000180e800910090000100e000d1
:10294000faff3a0010003700920f54001e003600c4
:102950000280e800100178000200e000faff3a006f
:102960001101780041908000802021000400370090
:10297000910f5400140036000180e800910090008f
:10298000828f5000faff3a0089908000888f5400af
:102990000100310088047800090078004c0007002d
:1029a0000000e00004003a00888f54000500320067
:1029b0008904d100f5ff37000918780036ff0700b9
:1029c000d2ff37000000eb004f04be0000000600fd
:1029d000881f7800630440000800a1008000eb001d
:1029e000800f540021003600e30f540001003e0028
:1029f0004800200008007800c2ff07008000eb00bc
:102a00000000e00019003200900078009101780089
:102a100064815100880f51000300310011019000c2
:102a2000020878000700370008814000020878009b
:102a30009101900013019800100178001109140011
:102a400088087800100178000000eb000200e00028
:102a500004003200920190000300e0000100320007
:102a60000280e800309088008180e8000100780052
:102a70004f0478000000060003003700b0cf1000bc
:102a8000050032000201e900800178000200e00048
:102a9000faff3a000000050003007800000006007d
:102aa000020037000304e000060032000001780055
:102ab00002007800b041780081cf5100f9ff3a0060
:102ac000010037000001eb00020078000000060062
:102ad000800078000000eb000100e00005003400f9
:102ae0000100780071f70700e10f400001003a0093
:102af0000000eb0000000600889fbe000004780084
:102b0000e6844000e4800a0019000000f27f200003
:102b1000820f500010003a00000ceb00990478007e
:102b20006f816400200020001b003a00210190000a
:102b30000200e00018003a00110190000200e000dd
:102b400015003a00100020001100e00012003200d1
:102b500020002000100037000000e00004003a00d0
:102b6000010078008d0207000000e00008003c0032
:102b7000f20028001901610001fe2300810c7100a0
:102b800021c02f00010c40000080eb000200370044
:102b9000000ceb000000eb004f04be00000006003c
:102ba000fc874700889fbe008a9fbe008c9fbe00a6
:102bb0008e1f78000006780080c5b30080cf5000db
:102bc0000a0032007740400080cf50000a003200f7
:102bd0006940400080cf50000b003200b01b210044
:102be00080bf9f00ae0020000a003700a21a21001b
:102bf00082bf9f0006003700b31b210083bf9f00e8
:102c00008e00200003003700b41b210084bf9f000a
:102c10000e0120003c02be002c03be000605be00d3
:102c20000404be0040c6b30080cf50000300320051
:102c30006540400080cf50000b003a00e00f52008a
:102c4000e08f5a00e00f5b00e08f5b0006003d0064
:102c50006000b8006011b80004045000858458007a
:102c60000605590087855900e80f57000400320017
:102c700040002000f00f57003a003a0001003700f2
:102c800030002000e00f5400e08f5c00e00f5d009a
:102c9000e08f5d0004003a008c1090008d01200050
:102ca0000100e000070032008e00e900888060002b
:102cb0008fba97008180420091407800f1ef9f0029
:102cc0007d012000800078008100e90005003300cc
:102cd0008b05d1000a85d3008984d3000884d300f2
:102ce000f9ff3700089ebe000a96be0013003700a9
:102cf0008d06e9008e00e900848060000fb997001e
:102d0000810041001141780083fd2f008d81410039
:102d100082f77900800178008301e9000500330023
:102d20008783d1000683d3008582d3000482d30039
:102d3000f9ff3700049ebe000696be003c02be00ae
:102d40002c03be00e00f5200e08f5a00e00f5b0042
:102d5000e08f5b00910034000d00e000e4ff3c00d8
:102d60008e0037000c68900081c6b300814f500080
:102d70000b00320006003c000004e00008003200b6
:102d8000e6c05000814f500052003a000400370066
:102d9000c1c6b300814f50004e003a0023003700f7
:102da0000800e00004003a000c1090008d012000a3
:102db0000000e00007003200050009000e84d80082
:102dc0000fba97000100420010407800f0ef9f001a
:102dd0007d012000050009000e84d8000b0037009b
:102de000050009000e04d8008d06e9008e81b900a7
:102df000020454008fb8970008844000984178007e
:102e000082fd2f000d0141008377790000047800d6
:102e10000800e000020032000d00e000f0ff3c007e
:102e2000cfc4de00614db90027003700e00f540029
:102e3000e08f5c0004003a000c1090008d0120002f
:102e40000000e000080032006171b9000800be0017
:102e5000e50307000fba9700800042009140780018
:102e6000f1ef9f007d0120006171b9000800be00f4
:102e7000acf707000c0037006171b9000800be0014
:102e8000be0207008d06e90080f1b900020454007b
:102e90008fba9700088442009841780082fd2f0085
:102ea0000d014100837779000004be00e00f50005f
:102eb000e08f5800020032000d00e000eeff3c0001
:102ec0004fcdde008a057800089ebe000a96be003f
:102ed00032003700e00f5400e08f5c00e00f5d002f
:102ee000e08f5d0004003a000c1090008d0120007e
:102ef0000000e0000a0032006172b900612bb900e5
:102f00000800be000a01be00600407000fba970067
:102f10008000420091407800f1ef9f007d01200089
:102f20006172b900612bb9000800be000a01be0041
:102f30004f0407000e0037006172b900612bb90021
:102f40000800be000a01be00540407008d06e90017
:102f500080f2b900040454008fba9700088442003c
:102f60009842780084fd2f000d02420085777a0098
:102f7000009ebe000296be003c04be002c05be00b2
:102f8000e00f5400e08f5c00e00f5d00e08f5d001b
:102f9000020034000d00e000e7ff3c00e80f57009e
:102fa00010003a003c1090000038a3000d003200e1
:102fb000f78f560006003e0080fd2f000d004000f8
:102fc000ef40780000c3b30080cf5000050032000e
:102fd00002c3b30071fd2f008d8040008d06e90013
:102fe00082f7780078811600420e98007c009000ed
:102ff00083fd2f008f8141008d80410058f807002c
:103000004c0890008c109000810f500006003d008d
:1030100000805000300e98003c1090000040a1004d
:10302000301698000f0037000100e0000d003d0051
:10303000bc109000f4806000f08f500009003a004e
:103040002c119000ac089000810051003c099000c8
:1030500082805000008050004240a90001003400ee
:10306000300e98004f0778004f06be004f05be0097
:103070004f04be00cf01b100000006000400fa00ba
:10308000889fbe008a9fbe008c1f780000047800d5
:1030900001067800a814900028089000808454004d
:1030a00038089000808454004808900080845400c0
:1030b0005808900080845400680890008084540070
:1030c00078089000808454000002220090bf9f0086
:1030d00000032300a0bf9f00381090000028a30029
:1030e00015003a000900e0001300340009057800db
:1030f0008a057800e20f5500010036002b00200001
:10310000c80190000b017800ee8057006800900025
:1031100003000100600498000000e000aa003200f3
:10312000181090000b004000101498000b0555007b
:103130004240a900eeff3c00280990000200e00098
:103140000c003400c80190008c00780068009000ea
:1031500003000100600498008080eb000000e000a4
:103160009a003200981090002808900000804000db
:1031700010149800380d90000a00e000110034008f
:103180008a057800e20f5500010036002b00200070
:10319000c80190000b017800ec8057006800900097
:1031a00003000100600498000000e0008600320087
:1031b000181090000b004000101498000b055500eb
:1031c000edff370008699000c808900050c6b300b2
:1031d000804f510008003a000100e0001500340063
:1031e000580290000809900098099000680090002b
:1031f00004000100070037000100e0000d0034006a
:10320000c801900001017800f8009000680090006b
:1032100003000100600498008080eb000000e000e3
:103220006a0032009810900048089000008040002a
:1032300010149800580d90000a00e00011003400ae
:103240008a057800e20f5500010036002b002000af
:10325000c80190000b017800ec80570068009000d6
:1032600003000100600498000000e00056003200f6
:10327000181090000b004000101498000b0555002a
:10328000edff3700086990006808900051c6b30050
:10329000814f51000d003a000000e0001c00340096
:1032a00078019000c8089000010141006111b80048
:1032b000828fd2008381d200580290008000780073
:1032c0006800900004000100090037000000e000e1
:1032d0000f00340078019000c80890008100410080
:1032e000c801900000017800680090000300010010
:1032f000600498008080eb000000e00033003200a2
:103300009810900068089000008040001014980009
:10331000780d90000a00e000110034008a05780062
:10332000e20f5500010036002b002000c80190007c
:103330000b017800ec80570068009000030001004a
:10334000600498000000e0001f0032001810900098
:103350000b004000101498000b055500edff3700de
:10336000381090008000eb000028a3001700320006
:103370000900e0001500340009057800e28f5400d0
:10338000010036002a002000c80190000a017800e0
:10339000ee80570068009000030001006004980070
:1033a0000000e00008003200181090000a00400001
:1033b000101498008a8454004240a900eeff3c009b
:1033c0008000eb00010037008080eb0001007800f6
:1033d0004f0678004f05be004f04be000080fa0083
:1033e000000006000108780000000600e68747009c
:1033f000889fbe008a9fbe008c9fbe008e1f7800f3
:1034000082bf9f00040478008299b900f2b79f0040
:103410000200e000590032000fb997000200e000fe
:10342000570032000006be007fb79700c80090002a
:1034300068009000808f5000040039000800780078
:103440005ef707000000e0003b0035000040200070
:10345000180060000a0032008e017800a2002000ef
:103460000c00be00c60007000005be00008075000d
:10347000070032008c0455008904e800050037007d
:103480008e0478000a0020000b00200001003700a5
:103490008e047800480190006800900002005000ff
:1034a000890f500003003100800478000a002000da
:1034b0000b0020006111b800828fd2008381d200fe
:1034c000090278000c00be008400070009075700bd
:1034d0004800900009004000400498000a857500eb
:1034e00004003200080078009af607000000e000af
:1034f00011003a000e00e0000f0032006148b800f1
:10350000808fd2008180d2000000780000f0a100fe
:103510000c01d0008001d000030641004220a80029
:1035200081864e004200a9004220ae004200a80061
:103530000c86d300bdff370000802000180060001b
:10354000020032000800780082f6070000c0200068
:1035500018006000020032004800900060049800eb
:103560007fb197000e0751000fb9970005000900c1
:103570000287d80080017800010037008001eb004d
:10358000030078004f0778004f06be004f05be00cd
:103590004f04be006f00b10000000600e6004000ce
:1035a0001101780005002800850261006f016100ab
:1035b000820878000200320012002000110037005b
:1035c000a0019000120020000300e0000d003a006e
:1035d000900190000300e0000a003a001000e000b3
:1035e00008003a003600370064034000960878006f
:1035f00080017800530b7800900978000408780067
:1036000070015100110278000400e000f6ff320062
:103610001300370064024000140378004f33de00cb
:10362000838141008308730080017800d303780010
:10363000cf3bde001403780006034300068a7300c4
:103640001302780004024200100378004f33de00ba
:103650008609720090017800038841000201e900a8
:1036600091017800ef8f5100eaff3600100037001b
:1036700080017800530378004f33dd001002d10041
:10368000040873006402400094037800cf3bdd001f
:103690001303d10086897300110378004f33dd00d6
:1036a0009401d100030a73009108d1000201e800df
:1036b00091017800ff8f5100edff3e00ef8861001f
:1036c00091887200020078000000060000c0da0055
:1036d0000000060000c0da00000006003400f80018
:1036e0003200f8000203be00820270008502720000
:1036f00002f0a6008301e800a301880000f0a60004
:103700008100e800910188001500b2000c00320031
:10371000104978000402e9001500320061014100ff
:10372000020039003420ec00020028006100400053
:10373000f7ff39003220ec0000002800f4ff3700ca
:10374000100978000482e90009003200620141009a
:10375000020039003420ec00020028006200400022
:10376000f7ff39003220ec0000002800f4ff37009a
:103770003200f9003400f9000601be000000060026
:103780000300e000070032009501800001d0fe0038
:103790001042780005d0fe000402fb00820f5200a8
:1037a000110032008301e9009501800001d0fe0084
:1037b0001042780005d0fe000404e000080032004a
:1037c000000278001000b00000026a004260af0002
:1037d00000f0a0000482d2000180b000e8ff3700b2
:1037e0000000200001002000000006008f1fd10013
:1037f000070307008f87e9000000e00000000600d3
:10380000809feb00020307008f87e9000000e000c3
:10381000000006002800fa00889fbe008a9fbe00b4
:103820008c9fbe0003866b008f0007006400e100e0
:10383000440032006408e1004a0032006100e10007
:10384000460032006108e10049003200ec06470002
:103850006000b8003d02be003d03be00f486570084
:103860006011b8003d04be003d05be007d03200090
:103870000b0037000000a0008d06e90013003200a5
:103880000402420085824a0006034b0087834b00f6
:103890000000400081804800020149008381490006
:1038a0000802520089825a000a035b008b835b0086
:1038b000f0ff3b000802420089824a000a034b00e5
:1038c0008b834b008d06e900edff3a008482720085
:1038d00086827200f707b200878272000100320010
:1038e000150020001e0490003e0b900006035400bb
:1038f000e63fb0000368a300070032000000a70005
:103900000500a0008301d1000281d3008180d30093
:103910000080d3000603e8008301d1000281d300b8
:103920008180d3000080d3000002eb000482d2002b
:103930002100070003f0a1000cf0a70003f0a00095
:103940005d003700640247006408e1005700320060
:103950003400be003401be00f6ff37006108e1000c
:10396000520032006011b8006000b800f1ff37006b
:1039700003ff270002002000fbff3700839f680041
:103980000100e00002003d0060001000e08018002f
:103990000300e00002003d0060011100e081190019
:1039a000e0f407004f00e00002003b006000100060
:1039b000e0801800000006001800200057002000da
:1039c000080453000d003d000600200097fc2f0066
:1039d0000740e1001e003400848272006102600032
:1039e0008301d1000281d3008180d3000080d30005
:1039f0000804e800f8ff3a00470020006104600076
:103a000005047400040464000d00320061004000ed
:103a1000e080480060014900e081490003b8a5004a
:103a2000070032000603e8006538e10004003a00b0
:103a30008301d1000281d3008180d3000080d300b4
:103a4000f87f20000830e10003003500080378000b
:103a50006000b8006011b8004433dd00f300b2002c
:103a60008301730000000600680447000294be0052
:103a70000094be00fc0447008694be008494be00ff
:103a800009007800ab02070008007800a9020700cf
:103a900099007800814f70000b003b000800be00c9
:103aa000840207004f00b10003003700f3ff270036
:103ab000f2ff2f006110b9004f06be004f05be0097
:103ac0004f04be000080fa00000006008103780069
:103ad00033f407000001be006000b8000478a300c2
:103ae00013003a006220e10015003e000d0039008d
:103af0008301d1000281d3008180d3008301d100f2
:103b00000281d3008180d3008301d1000281d300e0
:103b10008180d3000538b000c42add00f300b20074
:103b20008381720007f0a70003f0a00000000600e8
:103b3000f3ff2700f2ff2f006110b900fbff3700f1
:103b400003ff2700f7ff37001400fa00889fbe002c
:103b50008a9fbe008c9fbe000004be000205be000e
:103b6000680047000a90be000890be00710207007e
:103b70000070a7000bf0a100304320009e029000cf
:103b800080825200b0fe2f000028e10011003d00ad
:103b9000b0fc2f000028e100150034001e09900041
:103ba0008e0890007e0090000501b0000201d10057
:103bb0008180d3000080d3008502e800fbff3a003b
:103bc0000b00e000bcff3b0060001000e08018002c
:103bd000b9ff3700f0ff2f00f1ff27000b00e000d6
:103be000b5ff3b000100280000002000b2ff3700b5
:103bf0006000b800b0ff37004f89de008201780016
:103c000073023700000000002800fa00889fbe0001
:103c10008a9fbe008c9fbe0003866b0092ff070048
:103c20000028a30064003a000128a30067003a00be
:103c30000008a30062003a000108a30065003a00f2
:103c40001e009000be08900081064000ed3fb100cc
:103c5000f4805700ee019000111ab8008e09900010
:103c6000311bb8009e099000311cb800511db800ee
:103c7000f485570046000700fe0190003a00070057
:103c80008b85e8003e0007008e0990004000070089
:103c9000ee019000340007008b85e8003800070033
:103ca0008e099000400007009e0990001b18b80084
:103cb000890440000a854800fe0190003400070096
:103cc0008b85e80038000700ee0190003000070007
:103cd0008e0990001b18b800890440000a8548002e
:103ce0000a98a30008003a000402420085824a00b4
:103cf00006034b0087834b0008044c0089844c006a
:103d00000a054d008d06e900848272008502730069
:103d10004c3add00850272000100320015002000df
:103d2000443ade001400b2004538de00cb45dd0029
:103d30000b007000c540de00cb4ddd008b807000b5
:103d40004549de00cb55dd000b017100c551de0099
:103d50000d03780018ff070003f0a1000cf0a70086
:103d600003f0a00054ff37001b18b8008502400084
:103d700006834800e0834b0060044c0007003700d6
:103d80001b18b8000603400087834800faff37007d
:103d90001b18b8008703400008844800e0844c00ea
:103da00060054d00000006001b18b8000804400024
:103db00089844800faff37000108a3003bff3a005e
:103dc0005800be005801be00e3ff37000008a30002
:103dd00036ff3a0009047800f9ff370000000000c0
:103de00007f0a2000c013700cef307000400be006c
:103df00000000600020ab900001bb9000200b8006a
:103e0000810042008100430000000600889fbe0040
:103e10008a9fbe0030044200b0844a0030054b0047
:103e200090854b006000b1000898be000a90be006b
:103e30000440e10005c8e10006d0e10007d8e10038
:103e400002003100680040001008e8004f05be0085
:103e50004f04be0000000600889fbe008a9fbe007f
:103e60003004be002005be000418540005985c0014
:103e700006185d0007985d00110020000440e10075
:103e800005c8e10006d0e10007d8e10001003900d3
:103e90008000eb00108810004f05be004f04be00ec
:103ea000000006001200fa00889fbe008a9fbe0034
:103eb0008c9fbe00e0b79f00f1b79f0082bf9f00bc
:103ec00093bf9f000605be000404be000000eb0087
:103ed000d0b79f00c0b79f00b0b79f00a0b79f00aa
:103ee00090b79f00000678005fb19700cfb09700b1
:103ef000820141003fb097000200e00004003d0055
:103f0000370007007e805700c0ff0700030037001e
:103f1000330007007e805700cfff0700dfb6970011
:103f20000d00e0000c0035006fb29700ffb2970063
:103f30000fbb97009fbb97001000200001002000de
:103f40006011b800000272008182720002037300e7
:103f5000838373001b0007000c06e80001042000a7
:103f6000810f5600e0ff3a000d00e00004003d0024
:103f70000802be000a03be007e805700a3ff0700b0
:103f80005fa897000000e00005003a001fb297000c
:103f9000afb297003fb39700cfb397000900070077
:103fa0006fb09700ffb097000fb997009fb99700c7
:103fb0004f06be004f05be004f04be000080fa0051
:103fc000000006000100070000000600a4b79f00e3
:103fd000b5b79f00c6b79f00d7b79f000000060087
:103fe0004f09de0082817100b3b79f004f01de00f0
:103ff0008180400082807000a1b79f008fb0970041
:104000004f09de00000040000200700090b79f00e2
:104010007fa897004f01de00818040008280700001
:1040200081b79f000d0007004f3ade0000004000fe
:1040300004007000f0af9f00080007000402420077
:1040400085824a0006034b0087834b00dfff070091
:104050000802be000a03be00000006002fb297004f
:10406000bfb297004fb39700dfb397000000060080
:10407000881f780018002000881f780089ff07003b
:104080008f87e9004f04780000000600801feb00d6
:1040900084ff07008f87e90000000600889fbe00ac
:1040a0008a9fbe00e00f5000e08f5800e00f5900db
:1040b000e08f59000c003d006044b8006055b80026
:1040c0000000540081805c0002015d0083815d007e
:1040d000180020001500070008003d001800070028
:1040e0000004eb00050037000004eb000f000700a0
:1040f00002003d001200070018002000dcff07004e
:104100000800e000060032006022b8006033b8000a
:104110000000520081805a0002015b0083815b0035
:104120004f05be004f04be0000000600e00f520025
:10413000e08f5a00e00f5b00e08f5b00000006009c
:104140006044b8006055b8000402540085825c00e9
:1041500006035d0087835d0000000600889fbe00a7
:104160008a9fbe008c1f7800e00f5000e08f58003f
:10417000e00f5900e08f59000d003d006044b80089
:104180006055b8000000540081805c0002015d00b1
:1041900083815d001c0020000820e10009a8e100e7
:1041a0000ab0e1000bb8e1000d003d000800370047
:1041b0000006eb00e00f5200e08f5a00e00f5b00ba
:1041c000e08f5b0006003d006044b8006055b80019
:1041d0000402540085825c0006035d0087835d0055
:1041e000aaff07000c00e000060032006022b800c1
:1041f0006033b8000000520081805a0002015b0069
:1042000083815b004f0678004f05be004f04be005f
:1042100000000600000000002800fa00889fbe0091
:104220008a9fbe008c9fbe000706780087866900c3
:104230000c003b00030478008704780008f0a1001c
:1042400009f0a100840f5000858f5800860f590097
:10425000890f5c00030033000cf0a20001003a005b
:104260000cf0a10000fe07006400e1005f003200d6
:10427000780147006408e100610032006c014700ea
:10428000748557003200be001201be003a04be0021
:104290001a05be001e039000be0a9000850353005d
:1042a00006003d000004fd008104fd000205fd0044
:1042b0008305fd008703ea00050378000df8a300dd
:1042c0000400320060041400e0841c0060051d003e
:1042d000e0851d006022b8007d0320000d38e1005c
:1042e0008006eb000b0039004433dd00f300b20020
:1042f0008301730039003700848272000d02780058
:10430000e10664008b85d1000a85d3008984d3003f
:104310000884d3008703e900f7ff3b000800400052
:10432000898048000a0149008b81490004003b0054
:1043300060001000e080180060011900e0811900a1
:104340000358a300090032008d827200848272003b
:10435000610260008301d1000281d3008180d3001b
:104360000080d3000603e8001b0037000348a300c9
:1043700017003a000600e000170034000603e900c9
:104380000d00a300000048008180480002014900a0
:10439000838149000348a3000f003a000600e000b3
:1043a000090034000603e900000040008180480055
:1043b000020149008381490001003a000003eb003b
:1043c0000348a300f5ff32006022b8000200370066
:1043d000848272006182660077fd070003f0a1000d
:1043e0000cf0a70003f0a000b3fd37006401470004
:1043f0006408e10002003a000df8a300abfd3a00aa
:104400003200be001201be00abfd3700000000000c
:10441000889fbe008a9fbe008c9fbe000404be0021
:104420000605be00809fbe00829fbe002f000700d1
:10443000040678000800be000a01be002b00070039
:10444000840678004f03be004f02be008d4f7600f9
:104450007fb0970013003300f0ff2f008b8f6b00ad
:1044600006003b000d0666000c00a7000a0037009e
:1044700007f0a600100020000a003700880f520045
:10448000898f5a008a0f5b008b8f5b000300390015
:104490001000200001003e000000200007f0a700ef
:1044a0000000ea004f06be004f05be004f04be00ec
:1044b00000000600e48240001078a30007003200ec
:1044c000640240001178a3003400be001401be0055
:1044d000040032000330a700000006003500be00d3
:1044e0001501be000330a0000000060005ff2700f4
:1044f00005826100070032000428e100010032005b
:10450000240005000600070001003a0044000500f1
:104510000408050002000700f9ff3a001400050036
:104520006f82610081027000850271008502720055
:1045300000000600800078005002be005003be005c
:104540004439de00f700b200f37f20000301610070
:10455000090032000218e10016003a0085017200dd
:1045600083017300838173000008200015003a0066
:1045700040002000130037008501720083017300a2
:104580008381730005003a0004a8be0006a8be009f
:10459000100020000b0037000201e9000402420075
:1045a00085824a0006034b0087834b000748a3001f
:1045b000f9ff32000740a00004a8be0006a8be0014
:1045c0002000200080009800920098000000060063
:1045d000881f7800030478000300e00007003d0016
:1045e00060001000e080180060011900e0811900ef
:1045f00002003b0001f02d0003003700040007001b
:1046000008f0a70003f0a0004f04780000000600a7
:10461000889fbe0000827000040271000482710055
:104620002400320036432000c50020008383cf00e1
:104630000a0039000541b1008283cf00070039002c
:104640000541b1008183cf00040039000541b1006c
:104650008083cf00010039000541b10085c35300bc
:104660006022b800120032000a003b00848272000f
:10467000610260008301d1000281d3008180d300f8
:104680000080d3000603e8008743e800f7ff3a0004
:104690000700370000004000818048000201490007
:1046a000838149000603e9008743e900f9ff3a00e6
:0c46b000c1fc07004f04be000000060023
:020000040000fa
:1046bc006473000050490000433300003343000092
:1046cc004b320000353600004d50000035300000f4
:1046dc0036200000505700004d20000041440000df
:1046ec0043200000646500006d6f00002076000020
:1046fc00312e00003220000062790000205a0000a8
:10470c00656c00006c2000000d000000233e0000d2
:10471c003a200000505700004d200000496e000068
:10472c0069740000696100006c6900007a65000022
:10473c0064200000210d0000002300003e3a000020
:10474c0020440000656200007567000020700000c6
:10475c00726900006e740000662000006c6f00002f
:10476c006f700000206900006e740000657200001c
:10477c00766100006c200000746900006d6500001b
:10478c003a20000025640000206d0000732e00000c
:10479c00206c00006f6f0000705f0000696e0000fd
:1047ac007465000072760000616c00003a20000015
:1047bc0025640000200d00000a000000233e0000cc
:1047cc003a2000006d610000696e0000206c000052
:1047dc006f6f0000702000007374000061720000a5
:1047ec0074730000202100000d0000002323000042
:1047fc003e3a000053650000742000006e65000016
:10480c0077200000505700004d200000706500001c
:10481c00726900006f640000206200006173000088
:10482c0065640000206f00006e2000004144000011
:10483c0043200000506f000074320000207600000e
:10484c00616c000075650000206600006169000065
:10485c006c6500006420000040200000256400000e
:10486c00206e0000732100000d0a000000230000e0
:10487c00233e00003a530000657400007469000088
:10488c006e670000206e000065770000205000006d
:10489c00574d00002070000065720000696f000029
:1048ac006420000062610000736500006420000059
:1048bc006f6e0000204100004443000020500000b7
:1048cc006f740000322000007375000063630000f9
:1048dc006573000073660000756c000021400000d9
:1048ec0020250000642000006e7300000d0a0000fb
:1048fc00002d00002d2d00002d2d00002d2d000071
:10490c002d2d00002d2d00002d2d00002d2d000033
:10491c002d2d00000d000000233e00003a20000069
:10492c004375000072720000656e00007420000078
:10493c00505700004d2000006672000065710000a9
:10494c003a200000252e000033660000204b0000aa
:10495c00487a00002c200000447500007479000097
:10496c0020630000796300006c6500003a200000b1
:10497c002564000020250000252c0000200d0000df
:10498c000a000000233e00003a200000437500009e
:10499c0072720000656e0000742000005057000019
:1049ac004d20000066720000657100003a20000086
:1049bc00252e000033660000204d0000487a0000d0
:1049cc002c20000044750000747900002063000066
:1049dc00796300006c6500003a200000256400003b
:1049ec0020250000252c0000200d00000a000000ee
:1049fc00233e00003a200000437500007272000054
:104a0c00656e000074200000505700004d2000001f
:104a1c004475000074790000206300007963000085
:104a2c006c6500003a200000253300002e31000098
:104a3c0066200000252500002c2000000d0a000037
:104a4c00002300003e3a00002041000044430000d7
:104a5c005f4100004e3000003a2000002534000079
:104a6c002e33000066200000560d00000a000000e6
:104a7c00233e00003a20000041440000435f000048
:104a8c00414e0000313a000020250000342e000079
:104a9c0033660000205600000d0a000000230000c1
:104aac003e3a000020530000797300005f72000052
:104abc00756e00003a20000025640000202e0000d6
:104acc000d0a0000002300003e3a000020500000b8
:104adc004778000050450000522e0000766100001f
:104aec006c750000652000003d200000256400006e
:104afc002c0000005047000078440000432e0000ba
:104b0c00766100006c750000652000003d200000ff
:104b1c00256400002e0d00000a0d00000a000000a4
:020000040000fa
:104b2c000200fa0010002000000f7800af02b00065
:104b3c0060fd2f000f004000011821001400090037
:104b4c0031187800a002b10025000700af02b100b7
:104b5c00000f78001e0078000080fa0000000600ac
:104b6c000200fa0000302000000f78001e007800d0
:104b7c000080fa00000006000200fa00100020007d
:104b8c00000f7800af02b00060fd2f000f00400056
:104b9c00810c21001400090031187800a002b1002a
:104bac000f000700af02b100000f78001e00780064
:104bbc000080fa00000006000200fa00013020001c
:104bcc00010f78009e007800290009003158780008
:104bdc00a002b100a102b1000080fa0000000600a2
:104bec000400fa001000200010079800003020008c
:104bfc00000f78001e00780001fd2f008100470097
:104c0c002900090031587800a002b1001e00900064
:104c1c000080fa00000006000400fa00110798005a
:104c2c00a23220009e0090008101e9000436200091
:104c3c00a132200081005200819ab90084007800d2
:104c4c00010f41009e0078003500090031587800b2
:104c5c006003b1006103b1000080fa00000006009f
:104c6c000600fa002007980010002000100798009a
:104c7c00a13220002e0090000001e9000336200034
:104c8c00a0322000008051008090b900008f4000bd
:104c9c001e00780041fc2f00810047003500090000
:104cac00315878006003b1001e0090000080fa00bb
:104cbc00000006000600fa002007980010002000f3
:104ccc00100798002e0090000c010700000f7800d0
:104cdc001e007800830007009e0090000100600019
:104cec00100798002e0090006f03b000a1fc2f005d
:104cfc008f804000220f21001a000900b2187800a2
:104d0c006103b100d6ff07006f03b1001e007800ed
:104d1c00904090000174a100114098001e00780092
:104d2c001041780071ceb300814061000134a000c5
:104d3c00014878001e0078001041780081cfb30044
:104d4c0081406100014878001e00780010419000fd
:104d5c0081cfb30081406100114098001e007800a3
:104d6c00904078000174a000014878001e0090006b
:104d7c000080fa00000006000400fa0010079800fa
:104d8c0010002000000f78001e0090006f03b00090
:104d9c00a1fc2f008f804000220f21001a00090077
:104dac00b21878006103b100adff07006f03b100ca
:104dbc001e0078000080fa00000006000600fa00d1
:104dcc002007980010002000000f78000000eb0076
:104ddc00100798002e009000f04090000154a000a5
:104dec00714098002e009000f04090000144a0000b
:104dfc00714098002e009000804890000134a10072
:104e0c00014898002e009000804890000124a100d9
:104e1c00014898002e009000904090000174a00072
:104e2c00114098002e009000c04090000134a0006a
:104e3c00414098002e0090009040780000c8b300cc
:104e4c0000c060000004e0001b0032000000000005
:104e5c000118800000002800008060000000e000c5
:104e6c000a003a009e00900010c0b3007238210076
:104e7c00828f5000010036000040eb008100e800fa
:104e8c00110798000004e000f1ff3a009e0090002a
:104e9c0070382100808f500005003e000118800002
:104eac0000002400008060000000e00002003200de
:104ebc000000eb00090037002e00900080489000a5
:104ecc000134a000014898002e009000804890000a
:104edc000124a000014898001e0078000080fa0010
:104eec00000006000400fa001007980010002000d3
:104efc00000f78001e009000f04090000154a000bc
:104f0c00714098001e009000f04090000144a000f9
:104f1c00714098001e009000804890000134a10060
:104f2c00014898001e009000804890000124a100c8
:104f3c00014898001e009000904090000174a10060
:104f4c00114098001e0078000080fa000000060056
:104f5c000400fa001007980010002000000f7800e1
:104f6c001e009000f04090000154a1007140980088
:104f7c001e009000f04090000144a1007140980088
:104f8c001e0078000080fa00000006000400fa0001
:104f9c001007980010002000000f78001e009000f1
:104fac00f04090000154a000714098001e00900049
:104fbc00f04090000144a000714098001e00780061
:104fcc000080fa00000006000600fa0010079800a6
:104fdc002107980010002000000f7800ae00900010
:104fec001e009000f20f200002816000806990008a
:104ffc00e0c1610002c1710002689800c808de00bf
:10500c001069900060416100814071001168980046
:10501c001e0078000080fa00000006000600fa006e
:10502c00100798002107980010002000000f78004e
:10503c00ae0090001e009000f20f20000281600074
:10504c00c0619000e0c1610002c171004260980033
:10505c00c808de0050619000604161008140710021
:10506c00516098001e0078000080fa0000000600d5
:10507c000800fa00100798002107980032079800e2
:10508c0010002000000f7800ae0090001e00900071
:10509c00f20f200002816000a0719000e0c161005d
:1050ac0002c1710022709800c808de0030719000b7
:1050bc00604161008140710031709800be00900029
:1050cc001e009000f20f20000281600080719000a1
:1050dc00e0c1610002c1710002709800c808de00d6
:1050ec001071900060416100814071001170980056
:1050fc001e0078000080fa00000006000400fa0090
:10510c0010079800a13220001e0090000001e90059
:10511c0003362000a0322000008051008090b9009e
:10512c00008f40001e0078000080fa00000006008e
:10513c000400fa001007980010002000000f7800ff
:10514c001e0090000000e00002003a000000eb009e
:10515c00120037001e00900080007800a032200062
:10516c008080500002362000a03220000000510048
:10517c0000017800050009008280d8000000e800da
:10518c00000f78001e007800e80f50000200360077
:10519c000000eb00010037001e0078000080fa00d0
:1051ac00000006000600fa002007980010002000fe
:1051bc00000f78002e0090000000e00002003a0082
:1051cc000000eb001a0037002e00900080007800e1
:1051dc00a03220008080500002362000a032200037
:1051ec000000510000017800050009008280d80001
:1051fc000000e800100798001e009000e80f500017
:10520c00020036000000eb00090037001e00900081
:10521c00e40f50000300360020002000000f78003f
:10522c000200370010002000000f78001e007800ec
:10523c000080fa00000006001400fa0060079800d5
:10524c0071079800020f9800235798001000200057
:10525c00000f78000000eb00100798000000eb0036
:10526c00200798000000eb00300798000000eb00ce
:10527c00400798006e0090000000e0000300320030
:10528c000e0890000000e00002003a000000eb0065
:10529c006f0037006e009000a5ff07001007980004
:1052ac006e009000bfff0700300798000e089000ba
:1052bc009fff0700200798000e089000b9ff070019
:1052cc00400798006e009000b04090000134a000a0
:1052dc00314098007e0090000040780067406000ec
:1052ec006340600067406000ee0090006740600023
:1052fc00a149900082cfb30002c16100004071004f
:10530c00a04898002e5090000014a000e7406000c8
:10531c000e089000e7c06000b041900082cfb3004f
:10532c0002c1610081407100314098000e0890006c
:10533c00a04090000164a000214098000e0890004d
:10534c002049900071ceb300814061002148980043
:10535c000e0890001041780081cfb30081406100ad
:10536c0001487800be0090004e009000808f5000e5
:10537c001f003a003e009000e10f50000b003a0075
:10538c001e00900000407800ef4060000e08900076
:10539c00efc06000a041900002cfb30002c16100d9
:1053ac008140710021409800280037003e00900099
:1053bc00e20f50000c003a001e00900000407800f4
:1053cc0064405000ef4060000e089000efc0600099
:1053dc00a041900002cfb30002c161008140710076
:1053ec0021409800190037000000eb00180037002e
:1053fc000e0890004eff0700500798000e08900012
:10540c00a0409000f140b300214098000e0890009d
:10541c002059900001ceb300814061000104a0002e
:10542c00215898005e00900000407800e740600032
:10543c000e089000e7c060009061900082cfb3002e
