:040000005DEF00F0C0
:100008005705570557055705570557055705570508
:10001800240557055705570557055705570557052B
:100028005705570557052E00570557055705570516
:100038005705570557055705010454056904140465
:1000480057055705570557055705570559041A0306
:100058002E00570557052E00570557055705570514
:100068002A055705570557055705570557055705D5
:1000780057055705570557052E00570557055705C6
:1000880057055705570557052E00570557055705B6
:100098002E002E002E002E00570557055705570530
:1000A800300557055705570557055705570557058F
:1000B800FF0021EF09F0E1EC09F0850E0501C16FA1
:1000C800FE0EC26FB9EC09F0EB0E0501C16FFF0E11
:1000D800C26FB9EC09F0010144B575EF00F078EF93
:1000E80000F0010E79EF00F0000EFF0A0501CB6F5A
:1000F800CB47CB47010144510501CB19FB0BCB1969
:100108000101446F000ED6BE010E0501776FC10EC6
:10011800C16FFE0EC26F77C5C3F5C46BB9EC09F0A9
:10012800D68C000ED6BC010E0501776FF30EC16F99
:10013800FE0EC26F77C5C3F5C46BB9EC09F0D68E55
:10014800000ED6BE010E0501776F240EC16FFF0E9B
:10015800C26F77C5C3F5C46BB9EC09F0010144B5AA
:10016800B8EF00F0BBEF00F0010EBCEF00F0000E9E
:10017800FF0A0501CB6FCB47CB470101445105016D
:10018800CB19FB0BCB190101446FA6EC0AF0070E43
:10019800646ED60E636E030E6C6EE80E6D6E6A0E9C
:1001A8000501C16FFF0EC26FB9EC09F0A4EC0AF0AB
:1001B800000E0501796F000E786FA1EC0AF0000EB1
:1001C8000501756F000E746F05016A4B6B2B792B57
:1001D8007A51D8B4F2EF00F0F4EF00F00EEF01F02E
:1001E800010144B5FAEF00F0FDEF00F0010EFEEF5B
:1001F80000F0000EFF0A0501CB6FCB47CB4701018A
:1002080044510501CB19FB0BCB190101446F000EBA
:1002180005017A6F7B51D8B414EF01F016EF01F0A5
:1002280033EF01F04250745D43507559D8B01FEF59
:1002380001F021EF01F031EF01F042C568F543C547
:1002480069F574C566F575C567F56651685D9C6F97
:10025800675169599D6F010E766F000E7B6F79C5E6
:1002680017F5186A000E1A6E1968DCEC05F01750BD
:100278001810D8A442EF01F044EF01F048EF01F064
:10028800000E0501796F782B78C517F5186A000EEE
:100298001A6E1968DCEC05F017501810D8A457EF3F
:1002A80001F059EF01F05EEF01F0000E0501786FE3
:1002B800000E796F6AC517F56BC518F50F0E1A6E23
:1002C800A00E196EA6EC07F017501810D8A46FEFFF
:1002D80001F071EF01F0E8EF00F0CDEC09F0000E4D
:1002E80005016B6F000E6A6F7651D8B47EEF01F08E
:1002F80080EF01F0D3EF01F0D60EC16FFF0EC26F91
:10030800B9EC09F005017451425C9C6F7551435872
:100318009D6F8A0EC16FFF0EC26F9CC5C3F59DC548
:10032800C4F542C5C5F543C5C6F574C5C7F575C559
:10033800C8F5B9EC09F0A70E0501C16FFF0EC26F31
:10034800400E176E420E186E0F0E196E000E1A6EC2
:100358009CC51BF59DC51CF51D6A1E6A96EC03F02D
:1003680017C5C3F518C5C4F519C5C5F51AC5C6F529
:10037800B9EC09F0000E0501766F490EC16FFF0E4A
:10038800C26F9CC5C3F59DC5C4F568C5C5F569C5EB
:10039800C6F566C5C7F567C5C8F5B9EC09F0C00E5E
:1003A8000501C16FFF0EC26FB9EC09F0E8EF00F06C
:1003B8005DEF00F0ADC5D9F4AEC5DAF4DEC4F6F4ED
:1003C800DDC4F7F4F86A0800F550250AD8A4EFEF61
:1003D80001F0F1EF01F0B4EF02F0ADC5D9F4AEC50C
:1003E800DAF4DE2A000EDD22000E0501616F000E30
:1003F800606F60C544F534683568ADC5D9F4AEC5DD
:10040800DAF4DEC4B7F5DDC4B8F5B7C5F6F4B8C597
:10041800F7F4F86A0800F550640AD8B416EF02F049
:1004280018EF02F027EF02F0B7C5F6F4B8C5F7F4F5
:10043800F86A0800F550690AD8A425EF02F027EFFA
:1004480002F055EF02F0AFC5D9F4B0C5DAF4DFC455
:10045800B1F5020EDE26DFC4B2F5000EDD22B1C50D
:10046800D9F4B2C5DAF4DEC4B3F5DDC4B4F5010ECF
:10047800B725B16F000EB821B26FADC5D9F4AEC5BE
:10048800DAF4B1C5DEF4B2C5DDF4ABC59EF5ACC592
:100498009FF5B3C5A0F5B4C5A1F5CAEC02F0C9EF44
:1004A80002F0B7C5F6F4B8C5F7F4F86A0800F550D5
:1004B800750AD8A462EF02F064EF02F0ABEF02F025
:1004C800AFC5D9F4B0C5DAF4DFC4B1F5020EDE2643
:1004D800DFC4B2F5000EDD22B1C5D9F4B2C5DAF435
:1004E800DEC4B3F5DDC4B4F5010EB725B16F000E57
:1004F800B821B26FADC5D9F4AEC5DAF4B1C5DEF432
:10050800B2C5DDF494EF02F0ABC59EF5ACC59FF51E
:10051800B3C5A0F5B4C5A1F59AEC04F0C9EF02F093
:10052800B7C5F6F4B8C5F7F4F86A0800F550B16F26
:10053800B26BB251000AD8B4A4EF02F0ABEF02F0EC
:10054800B151750AD8B488EF02F0ABEF02F0ADC52F
:10055800D9F4AEC5DAF4DE2A000EDD22C9EF02F0C6
:10056800ADC5D9F4AEC5DAF4DEC4F6F4DDC4F7F4EB
:10057800F86A0800F550196E1A6AABC51BF5ACC5C8
:100588001CF515EC05F0ABEF02F012000501A1BF58
:10059800D0EF02F0D3EF02F0010ED4EF02F0000E1C
:1005A800A86FA851D8B4DBEF02F0DDEF02F0E1EF5D
:1005B80002F0A06DA11FD8B0A12B35BEE8EF02F064
:1005C800E6EF02F0EEEF02F0000EA56F010EA46F49
:1005D800F2EF02F034C5A4F535C5A5F560C5A6F55A
:1005E80061C5A7F5A851D8B4FCEF02F0FEEF02F000
:1005F80015EF03F0A607D8A0A707A851D8A407EFBE
:1006080003F009EF03F00FEF03F0000EA36F2B0EBA
:10061800A26F13EF03F0000EA36F2D0EA26FA2C5F9
:10062800A8F5000EAA6F1F0EA96F000E9B6F4EEF64
:1006380003F0A907D8A0AA077C0EA925D96E050E34
:10064800AA21DA6EA0C517F5A1C518F5000E1A6E15
:100658000A0E196EDCEC05F017C51DF518C51EF558
:1006680091EC08F01D50300FDF6E0501A407D8A0EB
:10067800A507A607D8A0A707A0C517F5A1C518F50F
:10068800000E1A6E0A0E196E7AEC05F017C5A0F561
:1006980018C5A1F50501AABF5AEF03F0AA5108E150
:1006A800A905D8A05AEF03F05CEF03F072EF03F04E
:1006B800A051A111D8A463EF03F065EF03F01DEF7B
:1006C80003F0A5BF72EF03F0A55106E1A405D8B069
:1006D80070EF03F072EF03F01DEF03F0A851D8B4E8
:1006E80078EF03F07AEF03F085EF03F0A907D8A0BD
:1006F800AA077C0EA925D96E050EAA21DA6EA8C50F
:10070800DFF49EC529F59FC52AF57C0EA9252B6E19
:10071800050EAA212C6EA6C52DF5A7C52EF58AECC7
:1007280006F01200000E206E1EBE9FEF03F09DEF34
:1007380003F0A9EF03F01E1E1D1E1C1E1B6C000EED
:100748001C221D221E22010E206E1ABEB0EF03F0DD
:10075800AEEF03F0BAEF03F01A1E191E181E176C3D
:10076800000E182219221A22010E201A000E216EDC
:10077800000E226E000E236E000E246E1B501C10FD
:100788001D101E10D8B4CBEF03F0CDEF03F003EF2C
:1007980004F0010E1F6ED7EF03F0D8901B361C36FD
:1007A8001D361E361F2A1EAEDCEF03F0DEEF03F007
:1007B800D1EF03F0D89021362236233624361B5049
:1007C800175C1C5018581D5019581E501A58D8A09C
:1007D800F0EF03F0F2EF03F0FBEF03F01B50175EAE
:1007E8001C50185A1D50195A1E501A5A2180D89058
:1007F8001E321D321C321B321F2EDEEF03F020503A
:10080800D8B409EF04F00BEF04F013EF04F0241E42
:10081800231E221E216C000E22222322242221C5FF
:1008280017F522C518F523C519F524C51AF51200C0
:10083800000E0101406F000E416F000E426F000E66
:10084800436F000E446F000E456F4869EF0E496F05
:10085800390E4A6F4B690B0E4C6F4D69EF0E040150
:10086800006FCF0E086F7E0E106F1869030E206F91
:100878002869000E016F000E096F000E116F000E3F
:10088800196F000E216F000E296F000E0201866F8E
:10089800000E856F000E886F000E876F000E040132
:1008A800026F000E0A6F000E126F000E1A6F000E14
:1008B800226F000E2A6F03690B6913691B69070E03
:1008C800236F2B6904690C6914691C690F0E246F66
:1008D8002C690D0E0201746F180E0D6F220E176F22
:1008E8000F0E126F100E136F100E4F6F000E0401D3
:1008F800056F000E066F000E076F000E3D6F000EAD
:100908003E6F000E3F6F000E0D6F000E0E6F000E53
:100918000F6F000E156F000E166F000E176F000E8A
:10092800256F000E266F000E276F120035BEA1EF4F
:1009380004F09FEF04F0A8EF04F0000E0501A56F86
:10094800010EA46FACEF04F034C5A4F535C5A5F5C8
:1009580060C5A2F561C5A3F5000E0501A76F1F0EBE
:10096800A66F000E9B6FE4EF04F0A607D8A0A707B8
:100978007C0EA625D96E050EA721DA6EA0C517F53F
:10098800A1C518F5000E1A6E0A0E196EA6EC07F02E
:100998001750300FDF6E0501A407D8A0A507A207DE
:1009A800D8A0A307A0C517F5A1C518F5000E1A6EA3
:1009B8000A0E196EC7EC06F017C5A0F518C5A1F503
:1009C8000501A651A711D8B4ECEF04F0EEEF04F03E
:1009D80004EF05F0A051A111D8A4F5EF04F0F7EF4A
:1009E80004F0B9EF04F0A5BF04EF05F0A55106E146
:1009F800A405D8B002EF05F004EF05F0B9EF04F054
:100A08009EC529F59FC52AF57C0EA6252B6E050ED9
:100A1800A7212C6EA2C52DF5A3C52EF58AEC06F0EC
:100A280012001B501C10D8B41CEF05F01EEF05F087
:100A380027EF05F01B501C10D8A425EF05F027EF71
:100A480005F02CEF05F01950F4EC09F079EF05F0FA
:100A580020EE0AF01B50D9261C50DA22DE50DE1098
:100A6800D8B439EF05F03BEF05F056EF05F020EE6E
:100A78000AF01B50D9261C50DA2210EE03F01B5046
:100A8800E1261C50E222DE50E65CE650800A216E28
:100A9800DE50800A2158D8B054EF05F056EF05F023
:100AA80079EF05F020EE03F01B50D9261C50DA220E
:100AB800DEC41DF5DDC41EF51BC5D9F41CC5DAF46A
:100AC800DEC41FF5DDC420F51D501F24D96E1E504D
:100AD8002020DA6E19C5DFF420EE03F01B50D9266A
:100AE8001C50DA22DE2A000EDD221200000E1C6ED7
:100AF8001ABE83EF05F081EF05F089EF05F0196C58
:100B08001A1ED8B01A2A010E1C6E18BE90EF05F0F6
:100B18008EEF05F096EF05F0176C181ED8B0182A5E
:100B2800010E1C1A000E1E6E000E1D6E19501A10B2
:100B3800D8B4A1EF05F0A3EF05F0CBEF05F0010E57
:100B48001B6EABEF05F0D89019361A361B2A1AAE71
:100B5800B0EF05F0B2EF05F0A7EF05F0D8901D361D
:100B68001E361950175C1A501858D8A0BEEF05F059
:100B7800C0EF05F0C5EF05F01950175E1A50185A66
:100B88001D80D8901A3219321B2EB2EF05F01C5076
:100B9800D8B4D1EF05F0D3EF05F0D7EF05F01D6C11
:100BA8001E1ED8B01E2A1DC517F51EC518F5120041
:100BB800000E1C6E18BEE5EF05F0E3EF05F0EBEF55
:100BC80005F0176C181ED8B0182A010E1C6E1ABE34
:100BD800F2EF05F0F0EF05F0F6EF05F0196C1A1ECC
:100BE800D8B01A2A19501A10D8B4FDEF05F0FFEF43
:100BF80005F023EF06F0010E1B6E07EF06F0D89004
:100C080019361A361B2A1AAE0CEF06F00EEF06F04C
:100C180003EF06F01950175C1A501858D8A017EFB0
:100C280006F019EF06F01DEF06F01950175E1A507E
:100C3800185AD8901A3219321B2E0EEF06F01C5093
:100C4800D8B429EF06F02BEF06F02FEF06F0176C5B
:100C5800181ED8B0182A17C517F518C518F51200A8
:100C6800FAC407F5FBC408F5B69E68A03EEF06F087
:100C780040EF06F060EF06F067A045EF06F047EF9B
:100C880006F060EF06F067900501D451D511D8B48D
:100C980050EF06F052EF06F085EF06F002D85EEF4F
:100CA80006F00500FA6ED451FD6ED551FE6EFF6A4E
:100CB800FA50120085EF06F068A265EF06F067EFBC
:100CC80006F085EF06F067A26CEF06F06EEF06F00F
:100CD80085EF06F067920501D251D311D8B477EFAA
:100CE80006F079EF06F085EF06F002D885EF06F0FA
:100CF8000500FA6ED251FD6ED351FE6EFF6AFA50AE
:100D0800120008C5FBF407C5FAF411002EBE8FEFD8
:100D180006F091EF06F097EF06F02DC532F52EC5D7
:100D280033F59BEF06F0000E336E000E326E000EA8
:100D3800316E000E306EADEF06F0000E1A6E200E0A
:100D4800196E29C51BF52AC51CF515EC05F0304AA6
:100D5800312A3250305C3150800A2F6E3350800A6D
:100D68002F58D8A0BAEF06F0BCEF06F0A1EF06F0B6
:100D78002BC522F52CC523F529C524F52AC525F54B
:100D88004DEC08F01200000E1D6E000E1C6E19507E
:100D98001A10D8B4D2EF06F0D4EF06F0FCEF06F044
:100DA800010E1B6EDCEF06F0D89019361A361B2A96
:100DB8001AAEE1EF06F0E3EF06F0D8EF06F0D890B0
:100DC8001C361D361950175C1A501858D8A0EFEF6A
:100DD80006F0F1EF06F0F6EF06F01950175E1A501C
:100DE800185A1C80D8901A3219321B2EE3EF06F0DD
:100DF8001CC517F51DC518F51200D68A000ED6BEFB
:100E0800010E196ED69E550E0401596FAA0E596F20
:100E18005991000E5F6F000E5E6F080E5D6F550EE4
:100E2800596FAA0E596F598119B002D0D69E01D0B8
:100E3800D68E9F889F8C9F8EA08EB390D6805E0E94
:100E4800176E150E186E8FEC0AF0B890D682600EE9
:100E5800176E150E186E8AEC0AF0BC90D684620ED6
:100E6800176E150E186E85EC0AF01200000E606EF3
:100E7800030E616E000E626E9F0E636E0F0E646E3F
:100E88004F0E656E630E666E000E676E000E686E1E
:100E9800820E6A6ED00E6B6E070E6C6EE80E6D6E6B
:100EA800030E6E6EB69CB69E67906792AB8EAB9C37
:100EB800560E176E150E186E7BEC0AF0540E176E50
:100EC800150E186E76EC0AF0580E176E150E186E81
:100ED80080EC0AF0800E696E1200000E0201B46FF9
:100EE800000EB66F000EB86F000EBA6F000EBC6F22
:100EF800B00EBE6F800EBF6F000EC06FA00EC16F28
:100F0800010EC26F200EC36F000EC46F800EC56F36
:100F1800000EC66F000E176E000E186E1FEC0AF05A
:100F2800000E176E000E186E11EC0AF0000E176E08
:100F3800000E186E03EC0AF0000E0501716F000E2A
:100F4800706F120019501A10D8B4ADEF07F0AFEF58
:100F580007F0D3EF07F0010E1B6EB7EF07F0D8903C
:100F680019361A361B2A1AAEBCEF07F0BEEF07F087
:100F7800B3EF07F01950175C1A501858D8A0C7EFEC
:100F880007F0C9EF07F0CDEF07F01950175E1A50B8
:100F9800185AD8901A3219321B2EBEEF07F017C50F
:100FA80017F518C518F51200BBC5BFF5BCC5C0F5C7
:100FB800EDEF07F0B9C5ABF5BAC5ACF5BF0E050145
:100FC800AD6F050EAE6FBDC5AFF5BEC5B0F5DEECB5
:100FD80001F0BFC5F6F4C0C5F7F4F86A0800F5508B
:100FE8000009D8A4FAEF07F0FCEF07F0DEEF07F0EE
:100FF800000E0501BA6F000EB96F1200FAC413F59E
:10100800FBC414F5B5983AC511F53BC512F5A4EC27
:1010180009F00501CE51CF11D8B415EF08F017EF3C
:1010280008F023EF08F002D823EF08F00500FA6E65
:10103800CE51FD6ECF51FE6EFF6AFA50120014C5F4
:10104800FBF413C5FAF41100FAC415F5FBC416F540
:10105800B59E39500301196F38C518F30501CC51F5
:10106800CD11D8B43AEF08F03CEF08F048EF08F09B
:1010780002D848EF08F00500FA6ECC51FD6ECD514C
:10108800FE6EFF6AFA50120016C5FBF415C5FAF495
:101098001100000E286E000E276E5EEF08F026C5C0
:1010A80019F51A6A24C51BF525C51CF515EC05F0BC
:1010B800274A282A27502224D96E28502320DA6E5E
:1010C800DF50266E2650D8A46CEF08F06EEF08F0BB
:1010D80053EF08F01200000E0301156F000E166F93
:1010E800010E176F3C0E136FAF0E126F125113C320
:1010F80019F51A6A19C51AF5196A19103A6E1A50AB
:101108003B6E640E176E150E186E6CEC0AF0B598EF
:10111800AA88340E0301146F12001EBE9EEF08F059
:101128001E5006E11D04D8B09CEF08F09EEF08F0B1
:10113800ACEF08F01DC51FF51EC520F51F1E201EAB
:101148001F4A202A1FC51DF520C51EF5B0EF08F05F
:0A1158001DC51DF51EC51EF5120091
:10116400FAC409F5FBC40AF5B69C0501D051D111A6
:10117400D8B4BFEF08F0C1EF08F0CDEF08F002D803
:10118400CDEF08F00500FA6ED051FD6ED151FE6E20
:10119400FF6AFA5012000AC5FBF409C5FAF41100FB
:1011A400FAC403F5FBC404F540C305F541C306F5D1
:1011B400B59C05C501F506C502F502D8ECEF08F0AB
:1011C4000500FA6E0501D651FD6ED751FE6EFF6A19
:1011D400FA50120004C5FBF403C5FAF41100000E22
:1011E4000301196F000E186F640E1B6F1951196EED
:1011F4001851386E19C539F53A0E176E150E186E5A
:1012040071EC0AF0B59EAA8E900E03011A6F1200BB
:10121400840E0301426F000E436F000E416F000EF7
:10122400406F760E176E140E186E94EC0AF00301DC
:101234004C51FC0B01094C6FB59CAA8C120001EEB9
:1012440060F13E0EEE6AE806FDE101EE34F1160EA1
:10125400EE6AE806FDE10401080E5D6F000E5E6FA4
:10126400000E5F6F00015FEF00F0000E0001B46F2D
:10127400070EB56F070EB66F070EB76F070EB86F80
:10128400070EB96F070EBE6F070EBF6F000EF46E28
:10129400000EF36E120040504110D8B454EF09F020
:1012A40056EF09F062EF09F002D862EF09F0050089
:1012B400FA6E4050FD6E4150FE6EFF6AFA50120005
:1012C40012003E503F10D8B46AEF09F06CEF09F0F9
:1012D40078EF09F002D878EF09F00500FA6E3E5075
:1012E400FD6E3F50FE6EFF6AFA50120012003C5031
:1012F4003D10D8B480EF09F082EF09F08EEF09F0C9
:1013040002D88EEF09F00500FA6E3C50FD6E3D5098
:10131400FE6EFF6AFA5012001200000E176E0201F0
:10132400C3AB97EF09F099EF09F0A2EF09F0BEAB58
:101334009EEF09F0A0EF09F0A2EF09F0010E176E7D
:1013440017501200030114A5AAEF09F0ACEF09F03D
:10135400B4EF09F014911250136F11C512F31481F4
:10136400B8EF09F01250136F11C512F31200C30E37
:101374000501C96F050ECA6F000EB96F000EBA6F72
:10138400C1C5BBF5C2C5BCF5C90EBD6F050EBE6FA8
:10139400D8EC07F01200010142BFD3EF09F0D6EFF9
:1013A40009F0010ED7EF09F0000EFF0A176E17328D
:1013B4001732425117187F0B1718426F12002DEC89
:1013C4000AF01CEC04F00AEC09F037EC09F03AECF2
:1013D40007F0F1EC08F06FEC08F071EC07F001ECA9
:1013E40007F01200186E8FEC09F00009D8B4FDEF75
:1013F40009F0FFEF09F0F5EF09F0185099EC0AF045
:10140400120017501810D8B40AEF0AF00CEF0AF0C3
:1014140010EF0AF017C56CF518C56DF512001750DA
:101424001810D8B418EF0AF01AEF0AF01EEF0AF0F9
:1014340017C56EF518C56FF5120017501810D8B4FB
:1014440026EF0AF028EF0AF02CEF0AF017C536F55C
:1014540018C537F51200610E0001AD6F000EAF6FB5
:10146400400EB36F080EB16F000EB06F000EAC6F7C
:101474001200010E05017B6F42C574F543C575F575
:0A14840001C542F502C543F5120050
:10149000FAC40BF5FBC40CF5B3904DEC09F00CC588
:1014A000FBF40BC5FAF41100FAC40DF5FBC40EF5FC
:1014B000B89063EC09F00EC5FBF40DC5FAF4110009
:1014C000FAC40FF5FBC410F5BC9079EC09F010C517
:1014D000FBF40FC5FAF4110017C5CEF518C5CFF50A
:1014E000120017C5CCF518C5CDF5120017C5D2F5F9
:1014F00018C5D3F5120017C5D4F518C5D5F51200D7
:1015000017C5D0F518C5D1F5120017C53CF518C59B
:101510003DF5120017C53EF518C53FF5120017C579
:1015200040F518C541F5120017C5D6F518C5D7F511
:101530001200176E17C5B6F21200010E05017A6F80
:101540001200030114811200698E1200699E1200BC
:0A155000B59A1100120012001200FB
:0A155C00110012001200120012002C
:10FE3C0000E20E00000000321500001E130000004E
:10FE4C0000000000000000000000000000000000A6
:10FE5C000000000000000000003E142214061400F4
:10FE6C0000E211000000000000E2140000DE10426D
:10FE7C001500000000D814000050494331384635B5
:10FE8C003651373120746573742050726F6772610C
:10FE9C006D20666F72205541525420616E64204370
:10FEAC0043502C20566572312E31206279205A65D0
:10FEBC006C6C0D0A0053595320626F6F742073746D
:10FECC00617475733A205F476C6F62616C496E7434
:10FEDC006572727570744869676853746174757370
:10FEEC002D2564200D0A0053595320626F6F742026
:10FEFC007374617475733A205F476C6F62616C49FF
:10FF0C006E746572727570744C6F7753746174751E
:10FF1C00732D2564200D0A00233E3A20456E616244
:10FF2C006C6520476C6F62616C496E74657272759A
:10FF3C007074486967683A2564200D0A00233E3ABC
:10FF4C004343505F4255465F646966663A257520A7
:10FF5C002C5261773A25752C2025750D0A00233E0D
:10FF6C003A204368616E67652050574D2046726594
:10FF7C007120746F20323030487A200D0A00233EF5
:10FF8C003A4343505F646966663A2575202C52618A
:10FF9C00773A25752C2025750D0A00233E3A4361CE
:10FFAC0070747572656420467265713A25752048C7
:10FFBC007A0D0A00233E737973206C6F6F70207278
:10FFCC00756E6E696E67210D0A00233E3A434350ED
:10FFDC005F646174615F76616C6964210D0A004431
:10FFEC006174653A372E4A756E652E323032330D98
:03FFFC000A0000F8
:020000040020DA
:10000000FFFFFFFFFFFFFFFFFFFFFFFFFFFFFFFF00
:10001000FFFFFFFFFFFFFFFFFFFFFFFFFFFFFFFFF0
:10002000FFFFFFFFFFFFFFFFFFFFFFFFFFFFFFFFE0
:10003000FFFFFFFFFFFFFFFFFFFFFFFFFFFFFFFFD0
:020000040030CA
:0B0000008CFEFFFF9FFF7FFFFFFFFF54
:00000001FF
